{
  "contractName": "vote",
  "abi": [
    {
      "inputs": [],
      "stateMutability": "nonpayable",
      "type": "constructor"
    },
    {
      "inputs": [
        {
          "internalType": "uint256",
          "name": "",
          "type": "uint256"
        }
      ],
      "name": "candDetails",
      "outputs": [
        {
          "internalType": "string",
          "name": "party_name",
          "type": "string"
        },
        {
          "internalType": "uint64",
          "name": "voteCount",
          "type": "uint64"
        },
        {
          "internalType": "string",
          "name": "img_url",
          "type": "string"
        },
        {
          "internalType": "uint256",
          "name": "id",
          "type": "uint256"
        }
      ],
      "stateMutability": "view",
      "type": "function",
      "constant": true
    },
    {
      "inputs": [
        {
          "internalType": "address",
          "name": "",
          "type": "address"
        }
      ],
      "name": "voterDetails",
      "outputs": [
        {
          "internalType": "string",
          "name": "name",
          "type": "string"
        },
        {
          "internalType": "string",
          "name": "aadhar",
          "type": "string"
        },
        {
          "internalType": "bool",
          "name": "hasVoted",
          "type": "bool"
        }
      ],
      "stateMutability": "view",
      "type": "function",
      "constant": true
    },
    {
      "inputs": [
        {
          "internalType": "string",
          "name": "_name",
          "type": "string"
        },
        {
          "internalType": "string",
          "name": "_img_url",
          "type": "string"
        }
      ],
      "name": "addCandidate",
      "outputs": [],
      "stateMutability": "nonpayable",
      "type": "function"
    },
    {
      "inputs": [
        {
          "internalType": "string",
          "name": "_name",
          "type": "string"
        },
        {
          "internalType": "string",
          "name": "_aadhar",
          "type": "string"
        },
        {
          "internalType": "address",
          "name": "_user",
          "type": "address"
        }
      ],
      "name": "addVoters",
      "outputs": [],
      "stateMutability": "nonpayable",
      "type": "function"
    },
    {
      "inputs": [
        {
          "internalType": "uint256",
          "name": "candId",
          "type": "uint256"
        }
      ],
      "name": "voting",
      "outputs": [],
      "stateMutability": "nonpayable",
      "type": "function"
    },
    {
      "inputs": [],
      "name": "getResult",
      "outputs": [
        {
          "internalType": "uint256[][]",
          "name": "",
          "type": "uint256[][]"
        }
      ],
      "stateMutability": "view",
      "type": "function",
      "constant": true
    }
  ],
  "bytecode": "0x60806040523480156200001157600080fd5b50620000726040518060400160405280600381526020017f424a5000000000000000000000000000000000000000000000000000000000008152506040518060c001604052806084815260200162001b4960849139620002eb60201b60201c565b620000d26040518060400160405280600381526020017f494e4300000000000000000000000000000000000000000000000000000000008152506040518060c001604052806087815260200162001ac260879139620002eb60201b60201c565b620001326040518060400160405280600381526020017f4e444100000000000000000000000000000000000000000000000000000000008152506040518060c00160405280608f815260200162001a33608f9139620002eb60201b60201c565b620001c36040518060400160405280600481526020017f52616a61000000000000000000000000000000000000000000000000000000008152506040518060400160405280600b81526020017f31323334353637383931320000000000000000000000000000000000000000008152507312123b2c064b62c54d00a691d84778a1944bc401620003be60201b60201c565b620002546040518060400160405280600481526020017f41736d69000000000000000000000000000000000000000000000000000000008152506040518060400160405280600381526020017f3636360000000000000000000000000000000000000000000000000000000000815250735e212f598a5c7c4566ae54214aa10dbf53525777620003be60201b60201c565b620002e56040518060400160405280600681526020017f50726565746900000000000000000000000000000000000000000000000000008152506040518060400160405280600a81526020017f303938373635343332310000000000000000000000000000000000000000000081525073307b19dc0f1c677bee88d28fac8760df77e6b8a4620003be60201b60201c565b62000844565b60006040518060800160405280848152602001600067ffffffffffffffff16815260200183815260200160005481525090508060016000805481526020019081526020016000206000820151816000019081620003499190620006f3565b5060208201518160010160006101000a81548167ffffffffffffffff021916908367ffffffffffffffff1602179055506040820151816002019081620003909190620006f3565b50606082015181600301559050506001600080828254620003b2919062000809565b92505081905550505050565b6000604051806060016040528085815260200184815260200160001515815250905080600260008473ffffffffffffffffffffffffffffffffffffffff1673ffffffffffffffffffffffffffffffffffffffff1681526020019081526020016000206000820151816000019081620004379190620006f3565b5060208201518160010190816200044f9190620006f3565b5060408201518160020160006101000a81548160ff02191690831515021790555090505050505050565b600081519050919050565b7f4e487b7100000000000000000000000000000000000000000000000000000000600052604160045260246000fd5b7f4e487b7100000000000000000000000000000000000000000000000000000000600052602260045260246000fd5b60006002820490506001821680620004fb57607f821691505b602082108103620005115762000510620004b3565b5b50919050565b60008190508160005260206000209050919050565b60006020601f8301049050919050565b600082821b905092915050565b6000600883026200057b7fffffffffffffffffffffffffffffffffffffffffffffffffffffffffffffffff826200053c565b6200058786836200053c565b95508019841693508086168417925050509392505050565b6000819050919050565b6000819050919050565b6000620005d4620005ce620005c8846200059f565b620005a9565b6200059f565b9050919050565b6000819050919050565b620005f083620005b3565b62000608620005ff82620005db565b84845462000549565b825550505050565b600090565b6200061f62000610565b6200062c818484620005e5565b505050565b5b8181101562000654576200064860008262000615565b60018101905062000632565b5050565b601f821115620006a3576200066d8162000517565b62000678846200052c565b8101602085101562000688578190505b620006a062000697856200052c565b83018262000631565b50505b505050565b600082821c905092915050565b6000620006c860001984600802620006a8565b1980831691505092915050565b6000620006e38383620006b5565b9150826002028217905092915050565b620006fe8262000479565b67ffffffffffffffff8111156200071a576200071962000484565b5b620007268254620004e2565b6200073382828562000658565b600060209050601f8311600181146200076b576000841562000756578287015190505b620007628582620006d5565b865550620007d2565b601f1984166200077b8662000517565b60005b82811015620007a5578489015182556001820191506020850194506020810190506200077e565b86831015620007c55784890151620007c1601f891682620006b5565b8355505b6001600288020188555050505b505050505050565b7f4e487b7100000000000000000000000000000000000000000000000000000000600052601160045260246000fd5b600062000816826200059f565b915062000823836200059f565b92508282019050808211156200083e576200083d620007da565b5b92915050565b6111df80620008546000396000f3fe608060405234801561001057600080fd5b50600436106100625760003560e01c806326541b56146100675780635938750d146100835780636e726823146100b5578063de292789146100d1578063ebba89b1146100ef578063fd4a77f114610122575b600080fd5b610081600480360381019061007c91906108be565b61013e565b005b61009d60048036038101906100989190610994565b61020b565b6040516100ac93929190610a5b565b60405180910390f35b6100cf60048036038101906100ca9190610aa0565b610352565b005b6100d9610409565b6040516100e69190610cb5565b60405180910390f35b61010960048036038101906101049190610d03565b6104f3565b6040516101199493929190610d62565b60405180910390f35b61013c60048036038101906101379190610d03565b610647565b005b60006040518060800160405280848152602001600067ffffffffffffffff1681526020018381526020016000548152509050806001600080548152602001908152602001600020600082015181600001908161019a9190610fc1565b5060208201518160010160006101000a81548167ffffffffffffffff021916908367ffffffffffffffff16021790555060408201518160020190816101df9190610fc1565b506060820151816003015590505060016000808282546101ff91906110c2565b92505081905550505050565b600260205280600052604060002060009150905080600001805461022e90610de4565b80601f016020809104026020016040519081016040528092919081815260200182805461025a90610de4565b80156102a75780601f1061027c576101008083540402835291602001916102a7565b820191906000526020600020905b81548152906001019060200180831161028a57829003601f168201915b5050505050908060010180546102bc90610de4565b80601f01602080910402602001604051908101604052809291908181526020018280546102e890610de4565b80156103355780601f1061030a57610100808354040283529160200191610335565b820191906000526020600020905b81548152906001019060200180831161031857829003601f168201915b5050505050908060020160009054906101000a900460ff16905083565b6000604051806060016040528085815260200184815260200160001515815250905080600260008473ffffffffffffffffffffffffffffffffffffffff1673ffffffffffffffffffffffffffffffffffffffff16815260200190815260200160002060008201518160000190816103c99190610fc1565b5060208201518160010190816103df9190610fc1565b5060408201518160020160006101000a81548160ff02191690831515021790555090505050505050565b60608060005b60005481116104eb576001600082815260200190815260200160002060030154828281518110610442576104416110f6565b5b602002602001015160008151811061045d5761045c6110f6565b5b6020026020010181815250506001600082815260200190815260200160002060010160009054906101000a900467ffffffffffffffff1667ffffffffffffffff168282815181106104b1576104b06110f6565b5b60200260200101516001815181106104cc576104cb6110f6565b5b60200260200101818152505080806104e390611125565b91505061040f565b508091505090565b600160205280600052604060002060009150905080600001805461051690610de4565b80601f016020809104026020016040519081016040528092919081815260200182805461054290610de4565b801561058f5780601f106105645761010080835404028352916020019161058f565b820191906000526020600020905b81548152906001019060200180831161057257829003601f168201915b5050505050908060010160009054906101000a900467ffffffffffffffff16908060020180546105be90610de4565b80601f01602080910402602001604051908101604052809291908181526020018280546105ea90610de4565b80156106375780601f1061060c57610100808354040283529160200191610637565b820191906000526020600020905b81548152906001019060200180831161061a57829003601f168201915b5050505050908060030154905084565b60001515600260003373ffffffffffffffffffffffffffffffffffffffff1673ffffffffffffffffffffffffffffffffffffffff16815260200190815260200160002060020160009054906101000a900460ff161515146106a757600080fd5b600180600083815260200190815260200160002060010160008282829054906101000a900467ffffffffffffffff166106e0919061116d565b92506101000a81548167ffffffffffffffff021916908367ffffffffffffffff1602179055506001600260003373ffffffffffffffffffffffffffffffffffffffff1673ffffffffffffffffffffffffffffffffffffffff16815260200190815260200160002060020160006101000a81548160ff02191690831515021790555050565b6000604051905090565b600080fd5b600080fd5b600080fd5b600080fd5b6000601f19601f8301169050919050565b7f4e487b7100000000000000000000000000000000000000000000000000000000600052604160045260246000fd5b6107cb82610782565b810181811067ffffffffffffffff821117156107ea576107e9610793565b5b80604052505050565b60006107fd610764565b905061080982826107c2565b919050565b600067ffffffffffffffff82111561082957610828610793565b5b61083282610782565b9050602081019050919050565b82818337600083830152505050565b600061086161085c8461080e565b6107f3565b90508281526020810184848401111561087d5761087c61077d565b5b61088884828561083f565b509392505050565b600082601f8301126108a5576108a4610778565b5b81356108b584826020860161084e565b91505092915050565b600080604083850312156108d5576108d461076e565b5b600083013567ffffffffffffffff8111156108f3576108f2610773565b5b6108ff85828601610890565b925050602083013567ffffffffffffffff8111156109205761091f610773565b5b61092c85828601610890565b9150509250929050565b600073ffffffffffffffffffffffffffffffffffffffff82169050919050565b600061096182610936565b9050919050565b61097181610956565b811461097c57600080fd5b50565b60008135905061098e81610968565b92915050565b6000602082840312156109aa576109a961076e565b5b60006109b88482850161097f565b91505092915050565b600081519050919050565b600082825260208201905092915050565b60005b838110156109fb5780820151818401526020810190506109e0565b60008484015250505050565b6000610a12826109c1565b610a1c81856109cc565b9350610a2c8185602086016109dd565b610a3581610782565b840191505092915050565b60008115159050919050565b610a5581610a40565b82525050565b60006060820190508181036000830152610a758186610a07565b90508181036020830152610a898185610a07565b9050610a986040830184610a4c565b949350505050565b600080600060608486031215610ab957610ab861076e565b5b600084013567ffffffffffffffff811115610ad757610ad6610773565b5b610ae386828701610890565b935050602084013567ffffffffffffffff811115610b0457610b03610773565b5b610b1086828701610890565b9250506040610b218682870161097f565b9150509250925092565b600081519050919050565b600082825260208201905092915050565b6000819050602082019050919050565b600081519050919050565b600082825260208201905092915050565b6000819050602082019050919050565b6000819050919050565b610b9681610b83565b82525050565b6000610ba88383610b8d565b60208301905092915050565b6000602082019050919050565b6000610bcc82610b57565b610bd68185610b62565b9350610be183610b73565b8060005b83811015610c12578151610bf98882610b9c565b9750610c0483610bb4565b925050600181019050610be5565b5085935050505092915050565b6000610c2b8383610bc1565b905092915050565b6000602082019050919050565b6000610c4b82610b2b565b610c558185610b36565b935083602082028501610c6785610b47565b8060005b85811015610ca35784840389528151610c848582610c1f565b9450610c8f83610c33565b925060208a01995050600181019050610c6b565b50829750879550505050505092915050565b60006020820190508181036000830152610ccf8184610c40565b905092915050565b610ce081610b83565b8114610ceb57600080fd5b50565b600081359050610cfd81610cd7565b92915050565b600060208284031215610d1957610d1861076e565b5b6000610d2784828501610cee565b91505092915050565b600067ffffffffffffffff82169050919050565b610d4d81610d30565b82525050565b610d5c81610b83565b82525050565b60006080820190508181036000830152610d7c8187610a07565b9050610d8b6020830186610d44565b8181036040830152610d9d8185610a07565b9050610dac6060830184610d53565b95945050505050565b7f4e487b7100000000000000000000000000000000000000000000000000000000600052602260045260246000fd5b60006002820490506001821680610dfc57607f821691505b602082108103610e0f57610e0e610db5565b5b50919050565b60008190508160005260206000209050919050565b60006020601f8301049050919050565b600082821b905092915050565b600060088302610e777fffffffffffffffffffffffffffffffffffffffffffffffffffffffffffffffff82610e3a565b610e818683610e3a565b95508019841693508086168417925050509392505050565b6000819050919050565b6000610ebe610eb9610eb484610b83565b610e99565b610b83565b9050919050565b6000819050919050565b610ed883610ea3565b610eec610ee482610ec5565b848454610e47565b825550505050565b600090565b610f01610ef4565b610f0c818484610ecf565b505050565b5b81811015610f3057610f25600082610ef9565b600181019050610f12565b5050565b601f821115610f7557610f4681610e15565b610f4f84610e2a565b81016020851015610f5e578190505b610f72610f6a85610e2a565b830182610f11565b50505b505050565b600082821c905092915050565b6000610f9860001984600802610f7a565b1980831691505092915050565b6000610fb18383610f87565b9150826002028217905092915050565b610fca826109c1565b67ffffffffffffffff811115610fe357610fe2610793565b5b610fed8254610de4565b610ff8828285610f34565b600060209050601f83116001811461102b5760008415611019578287015190505b6110238582610fa5565b86555061108b565b601f19841661103986610e15565b60005b828110156110615784890151825560018201915060208501945060208101905061103c565b8683101561107e578489015161107a601f891682610f87565b8355505b6001600288020188555050505b505050505050565b7f4e487b7100000000000000000000000000000000000000000000000000000000600052601160045260246000fd5b60006110cd82610b83565b91506110d883610b83565b92508282019050808211156110f0576110ef611093565b5b92915050565b7f4e487b7100000000000000000000000000000000000000000000000000000000600052603260045260246000fd5b600061113082610b83565b91507fffffffffffffffffffffffffffffffffffffffffffffffffffffffffffffffff820361116257611161611093565b5b600182019050919050565b600061117882610d30565b915061118383610d30565b9250828201905067ffffffffffffffff8111156111a3576111a2611093565b5b9291505056fea26469706673582212204b028d5df2bce5d6fc3eb39a3006b5008651a8341e153ea75bbe7e708deffc4864736f6c6343000813003368747470733a2f2f75706c6f61642e77696b696d656469612e6f72672f77696b6970656469612f636f6d6d6f6e732f7468756d622f312f31342f4e6174696f6e616c5f44656d6f6372617469635f416c6c69616e63655f6c6f676f2e7376672f38303070782d4e6174696f6e616c5f44656d6f6372617469635f416c6c69616e63655f6c6f676f2e7376672e706e6768747470733a2f2f75706c6f61642e77696b696d656469612e6f72672f77696b6970656469612f636f6d6d6f6e732f7468756d622f372f37382f496e6469616e5f4e6174696f6e616c5f436f6e67726573735f6c6f676f2e7376672f38303070782d496e6469616e5f4e6174696f6e616c5f436f6e67726573735f6c6f676f2e7376672e706e6768747470733a2f2f75706c6f61642e77696b696d656469612e6f72672f77696b6970656469612f636f6d6d6f6e732f7468756d622f312f31652f4268617261746979615f4a616e6174615f50617274795f6c6f676f2e7376672f3132303070782d4268617261746979615f4a616e6174615f50617274795f6c6f676f2e7376672e706e67",
  "immutableReferences": {},
  "source": "// SPDX-License-Identifier: MIT\r\npragma solidity >=0.4.22 <0.9.0;\r\n\r\ncontract vote {\r\n    \r\n    uint candidateCount;\r\n\r\n\r\n    // participating candidates\r\n    \r\n    struct Candidate{\r\n        string party_name;\r\n        uint64 voteCount;\r\n        string img_url;\r\n        uint id;\r\n    }\r\n    mapping(uint => Candidate) public candDetails;\r\n\r\n    function addCandidate(string memory _name, string memory _img_url) public{\r\n        Candidate memory newCandidate = Candidate(_name, 0, _img_url, candidateCount);\r\n        candDetails[candidateCount] = newCandidate;\r\n        candidateCount += 1;\r\n    }\r\n\r\n    // voters\r\n\r\n    struct Voter{\r\n        string name;\r\n        string aadhar;\r\n        bool hasVoted;\r\n    }\r\n    mapping(address => Voter) public voterDetails;\r\n\r\n    function addVoters(string memory _name, string memory _aadhar, address _user) public{\r\n        Voter memory newVoter = Voter(_name, _aadhar, false);\r\n        voterDetails[_user] = newVoter;\r\n    }\r\n\r\n    // sample voters (address are relative to ganache) and participants\r\n    constructor(){\r\n        addCandidate(\"BJP\",\"https://upload.wikimedia.org/wikipedia/commons/thumb/1/1e/Bharatiya_Janata_Party_logo.svg/1200px-Bharatiya_Janata_Party_logo.svg.png\");\r\n        addCandidate(\"INC\",\"https://upload.wikimedia.org/wikipedia/commons/thumb/7/78/Indian_National_Congress_logo.svg/800px-Indian_National_Congress_logo.svg.png\");\r\n        addCandidate(\"NDA\",\"https://upload.wikimedia.org/wikipedia/commons/thumb/1/14/National_Democratic_Alliance_logo.svg/800px-National_Democratic_Alliance_logo.svg.png\");\r\n    \r\n        // voters\r\n        addVoters(\"Raja\",\"12345678912\", 0x12123B2c064b62c54D00a691D84778A1944bC401);\r\n        addVoters(\"Asmi\", \"666\", 0x5E212f598a5c7C4566ae54214aA10dbf53525777);\r\n        addVoters(\"Preeti\", \"0987654321\", 0x307b19dC0F1c677bee88D28FAC8760dF77e6b8a4);\r\n    }\r\n\r\n\r\n    // voting function\r\n\r\n    function voting(uint candId) public{\r\n        require(voterDetails[msg.sender].hasVoted == false);\r\n        candDetails[candId].voteCount += 1;\r\n        voterDetails[msg.sender].hasVoted = true;\r\n    }\r\n\r\n    // return style top to bottom style - i.e accourding to the result in \r\n\r\n    function getResult() public view returns(uint [][] memory){\r\n        uint[][] memory result;\r\n        for (uint i = 0; i <= candidateCount; i++){\r\n            result[i][0] = candDetails[i].id;\r\n            result[i][1] = candDetails[i].voteCount;\r\n        }\r\n        return result;\r\n    }\r\n\r\n    /*\r\n        TODO OR MAY REQUIRED\r\n        \r\n        [-] Making addCandidate and addVoters to admin only function\r\n        [-] Create a separate dashboard for admin to add users and verify votes\r\n    */\r\n}",
  "sourcePath": "D:\\Projects\\fya-e-voting\\smart_contract\\contracts\\vote.sol",
  "compiler": {
    "name": "solc",
    "version": "0.8.19+commit.7dd6d404.Emscripten.clang"
  },
  "schemaVersion": "3.4.13",
  "updatedAt": "2023-04-14T17:16:37.318Z",
  "networkType": "ethereum",
  "devdoc": {
    "kind": "dev",
    "methods": {},
    "version": 1
  },
  "userdoc": {
    "kind": "user",
    "methods": {},
    "version": 1
  }
}