{
  "contractName": "vote",
  "abi": [
    {
      "inputs": [],
      "name": "isVoted",
      "outputs": [
        {
          "internalType": "bool",
          "name": "",
          "type": "bool"
        }
      ],
      "stateMutability": "view",
      "type": "function",
      "constant": true
    },
    {
      "inputs": [
        {
          "internalType": "bool",
          "name": "val",
          "type": "bool"
        }
      ],
      "name": "set",
      "outputs": [],
      "stateMutability": "nonpayable",
      "type": "function"
    },
    {
      "inputs": [],
      "name": "get",
      "outputs": [
        {
          "internalType": "bool",
          "name": "",
          "type": "bool"
        }
      ],
      "stateMutability": "view",
      "type": "function",
      "constant": true
    }
  ],
  "bytecode": "0x60806040526000805460ff1916905534801561001a57600080fd5b5060e5806100296000396000f3fe6080604052348015600f57600080fd5b5060043610603c5760003560e01c80635f76f6ab1460415780636d4ce63c1460615780637b5bc2e414607c575b600080fd5b605f604c3660046088565b6000805460ff1916911515919091179055565b005b60005460ff165b604051901515815260200160405180910390f35b60005460689060ff1681565b600060208284031215609957600080fd5b8135801515811460a857600080fd5b939250505056fea2646970667358221220e959bfc55f71f3184de3ef7249872498909d1eaf55e4a680d1cd285bb7e310c364736f6c63430008130033",
  "immutableReferences": {},
  "source": "//SPDX-License-Identifier: Unlicensed\r\npragma solidity >= 0.8.0;\r\n\r\ncontract vote{\r\n    bool public isVoted = false;\r\n\r\n    function set(bool val) public{\r\n        isVoted = val;\r\n    }\r\n    function get() public view returns(bool){\r\n        return isVoted;\r\n    }\r\n}",
  "sourcePath": "E:\\Projects\\fya-e-voting\\smart_contracts\\contracts\\vote.sol",
  "compiler": {
    "name": "solc",
    "version": "0.8.19+commit.7dd6d404.Emscripten.clang"
  },
  "schemaVersion": "3.4.13",
  "updatedAt": "2023-04-06T10:12:07.969Z",
  "networkType": "ethereum",
  "devdoc": {
    "kind": "dev",
    "methods": {},
    "version": 1
  },
  "userdoc": {
    "kind": "user",
    "methods": {},
    "version": 1
  }
}