{
  "contractName": "vote",
  "abi": [
    {
      "inputs": [],
      "stateMutability": "nonpayable",
      "type": "constructor"
    },
    {
      "inputs": [
        {
          "internalType": "uint256",
          "name": "",
          "type": "uint256"
        }
      ],
      "name": "candDetails",
      "outputs": [
        {
          "internalType": "string",
          "name": "party_name",
          "type": "string"
        },
        {
          "internalType": "uint64",
          "name": "voteCount",
          "type": "uint64"
        },
        {
          "internalType": "string",
          "name": "img_url",
          "type": "string"
        },
        {
          "internalType": "uint256",
          "name": "id",
          "type": "uint256"
        }
      ],
      "stateMutability": "view",
      "type": "function",
      "constant": true
    },
    {
      "inputs": [],
      "name": "candidateCount",
      "outputs": [
        {
          "internalType": "uint256",
          "name": "",
          "type": "uint256"
        }
      ],
      "stateMutability": "view",
      "type": "function",
      "constant": true
    },
    {
      "inputs": [],
      "name": "owner",
      "outputs": [
        {
          "internalType": "address",
          "name": "",
          "type": "address"
        }
      ],
      "stateMutability": "view",
      "type": "function",
      "constant": true
    },
    {
      "inputs": [
        {
          "internalType": "address",
          "name": "",
          "type": "address"
        }
      ],
      "name": "voterDetails",
      "outputs": [
        {
          "internalType": "string",
          "name": "name",
          "type": "string"
        },
        {
          "internalType": "string",
          "name": "aadhar",
          "type": "string"
        },
        {
          "internalType": "bool",
          "name": "hasVoted",
          "type": "bool"
        }
      ],
      "stateMutability": "view",
      "type": "function",
      "constant": true
    },
    {
      "inputs": [
        {
          "internalType": "string",
          "name": "_name",
          "type": "string"
        },
        {
          "internalType": "string",
          "name": "_img_url",
          "type": "string"
        }
      ],
      "name": "addCandidate",
      "outputs": [],
      "stateMutability": "nonpayable",
      "type": "function"
    },
    {
      "inputs": [
        {
          "internalType": "string",
          "name": "_name",
          "type": "string"
        },
        {
          "internalType": "string",
          "name": "_aadhar",
          "type": "string"
        },
        {
          "internalType": "address",
          "name": "_user",
          "type": "address"
        }
      ],
      "name": "addVoters",
      "outputs": [],
      "stateMutability": "nonpayable",
      "type": "function"
    },
    {
      "inputs": [
        {
          "internalType": "uint256",
          "name": "candId",
          "type": "uint256"
        }
      ],
      "name": "voting",
      "outputs": [],
      "stateMutability": "nonpayable",
      "type": "function"
    },
    {
      "inputs": [
        {
          "internalType": "address",
          "name": "addr",
          "type": "address"
        }
      ],
      "name": "checkVoted",
      "outputs": [
        {
          "internalType": "bool",
          "name": "",
          "type": "bool"
        }
      ],
      "stateMutability": "view",
      "type": "function",
      "constant": true
    },
    {
      "inputs": [],
      "name": "getResult",
      "outputs": [
        {
          "internalType": "uint256[][]",
          "name": "",
          "type": "uint256[][]"
        }
      ],
      "stateMutability": "view",
      "type": "function",
      "constant": true
    },
    {
      "inputs": [
        {
          "internalType": "uint256",
          "name": "id",
          "type": "uint256"
        }
      ],
      "name": "getCandid",
      "outputs": [
        {
          "components": [
            {
              "internalType": "string",
              "name": "party_name",
              "type": "string"
            },
            {
              "internalType": "uint64",
              "name": "voteCount",
              "type": "uint64"
            },
            {
              "internalType": "string",
              "name": "img_url",
              "type": "string"
            },
            {
              "internalType": "uint256",
              "name": "id",
              "type": "uint256"
            }
          ],
          "internalType": "struct vote.Candidate",
          "name": "",
          "type": "tuple"
        }
      ],
      "stateMutability": "view",
      "type": "function",
      "constant": true
    }
  ],
  "bytecode": "0x60806040527337afc9bc5804fbbb248f59650808abaf320f2b80600360006101000a81548173ffffffffffffffffffffffffffffffffffffffff021916908373ffffffffffffffffffffffffffffffffffffffff1602179055503480156200006657600080fd5b50620000c76040518060400160405280600381526020017f424a5000000000000000000000000000000000000000000000000000000000008152506040518060c001604052806084815260200162001ff3608491396200043160201b60201c565b620001276040518060400160405280600381526020017f494e4300000000000000000000000000000000000000000000000000000000008152506040518060c001604052806087815260200162001f6c608791396200043160201b60201c565b620001876040518060400160405280600381526020017f4e444100000000000000000000000000000000000000000000000000000000008152506040518060c00160405280608f815260200162001edd608f91396200043160201b60201c565b620001e76040518060400160405280600481526020017f4e4f54410000000000000000000000000000000000000000000000000000000081525060405180608001604052806048815260200162002077604891396200043160201b60201c565b620002786040518060400160405280600481526020017f52616a61000000000000000000000000000000000000000000000000000000008152506040518060400160405280600b81526020017f31323334353637383931320000000000000000000000000000000000000000008152507337afc9bc5804fbbb248f59650808abaf320f2b806200050460201b60201c565b620003096040518060400160405280600481526020017f41736d69000000000000000000000000000000000000000000000000000000008152506040518060400160405280600381526020017f3636360000000000000000000000000000000000000000000000000000000000815250738fff0a7bf0de63bc0834d23fbeea7c630ccd94d16200050460201b60201c565b6200039a6040518060400160405280600681526020017f50726565746900000000000000000000000000000000000000000000000000008152506040518060400160405280600a81526020017f303938373635343332310000000000000000000000000000000000000000000081525073f8b90b06cbd25146b0d1dc4372f1252973c2c9c36200050460201b60201c565b6200042b6040518060400160405280600481526020017f59617368000000000000000000000000000000000000000000000000000000008152506040518060400160405280600881526020017f333432343334333400000000000000000000000000000000000000000000000081525073a1ea63bb04c851482815a79fe718e27bfb3f29146200050460201b60201c565b6200098a565b60006040518060800160405280848152602001600067ffffffffffffffff168152602001838152602001600054815250905080600160008054815260200190815260200160002060008201518160000190816200048f919062000839565b5060208201518160010160006101000a81548167ffffffffffffffff021916908367ffffffffffffffff1602179055506040820151816002019081620004d6919062000839565b50606082015181600301559050506001600080828254620004f891906200094f565b92505081905550505050565b6000604051806060016040528085815260200184815260200160001515815250905080600260008473ffffffffffffffffffffffffffffffffffffffff1673ffffffffffffffffffffffffffffffffffffffff16815260200190815260200160002060008201518160000190816200057d919062000839565b50602082015181600101908162000595919062000839565b5060408201518160020160006101000a81548160ff02191690831515021790555090505050505050565b600081519050919050565b7f4e487b7100000000000000000000000000000000000000000000000000000000600052604160045260246000fd5b7f4e487b7100000000000000000000000000000000000000000000000000000000600052602260045260246000fd5b600060028204905060018216806200064157607f821691505b602082108103620006575762000656620005f9565b5b50919050565b60008190508160005260206000209050919050565b60006020601f8301049050919050565b600082821b905092915050565b600060088302620006c17fffffffffffffffffffffffffffffffffffffffffffffffffffffffffffffffff8262000682565b620006cd868362000682565b95508019841693508086168417925050509392505050565b6000819050919050565b6000819050919050565b60006200071a620007146200070e84620006e5565b620006ef565b620006e5565b9050919050565b6000819050919050565b6200073683620006f9565b6200074e620007458262000721565b8484546200068f565b825550505050565b600090565b6200076562000756565b620007728184846200072b565b505050565b5b818110156200079a576200078e6000826200075b565b60018101905062000778565b5050565b601f821115620007e957620007b3816200065d565b620007be8462000672565b81016020851015620007ce578190505b620007e6620007dd8562000672565b83018262000777565b50505b505050565b600082821c905092915050565b60006200080e60001984600802620007ee565b1980831691505092915050565b6000620008298383620007fb565b9150826002028217905092915050565b6200084482620005bf565b67ffffffffffffffff81111562000860576200085f620005ca565b5b6200086c825462000628565b620008798282856200079e565b600060209050601f831160018114620008b157600084156200089c578287015190505b620008a885826200081b565b86555062000918565b601f198416620008c1866200065d565b60005b82811015620008eb57848901518255600182019150602085019450602081019050620008c4565b868310156200090b578489015162000907601f891682620007fb565b8355505b6001600288020188555050505b505050505050565b7f4e487b7100000000000000000000000000000000000000000000000000000000600052601160045260246000fd5b60006200095c82620006e5565b91506200096983620006e5565b925082820190508082111562000984576200098362000920565b5b92915050565b611543806200099a6000396000f3fe608060405234801561001057600080fd5b506004361061009e5760003560e01c80638da5cb5b116100665780638da5cb5b1461016d578063a9a981a31461018b578063de292789146101a9578063ebba89b1146101c7578063fd4a77f1146101fa5761009e565b806303ca6a4a146100a357806326541b56146100d357806328b44471146100ef5780635938750d1461011f5780636e72682314610151575b600080fd5b6100bd60048036038101906100b89190610a44565b610216565b6040516100ca9190610b9d565b60405180910390f35b6100ed60048036038101906100e89190610cf4565b6103a3565b005b61010960048036038101906101049190610dca565b610470565b6040516101169190610e12565b60405180910390f35b61013960048036038101906101349190610dca565b6104c9565b60405161014893929190610e77565b60405180910390f35b61016b60048036038101906101669190610ebc565b610610565b005b6101756106c7565b6040516101829190610f56565b60405180910390f35b6101936106ed565b6040516101a09190610f80565b60405180910390f35b6101b16106f3565b6040516101be919061110c565b60405180910390f35b6101e160048036038101906101dc9190610a44565b610757565b6040516101f1949392919061113d565b60405180910390f35b610214600480360381019061020f9190610a44565b6108ab565b005b61021e6109c8565b6001600083815260200190815260200160002060405180608001604052908160008201805461024c906111bf565b80601f0160208091040260200160405190810160405280929190818152602001828054610278906111bf565b80156102c55780601f1061029a576101008083540402835291602001916102c5565b820191906000526020600020905b8154815290600101906020018083116102a857829003601f168201915b505050505081526020016001820160009054906101000a900467ffffffffffffffff1667ffffffffffffffff1667ffffffffffffffff168152602001600282018054610310906111bf565b80601f016020809104026020016040519081016040528092919081815260200182805461033c906111bf565b80156103895780601f1061035e57610100808354040283529160200191610389565b820191906000526020600020905b81548152906001019060200180831161036c57829003601f168201915b505050505081526020016003820154815250509050919050565b60006040518060800160405280848152602001600067ffffffffffffffff168152602001838152602001600054815250905080600160008054815260200190815260200160002060008201518160000190816103ff919061139c565b5060208201518160010160006101000a81548167ffffffffffffffff021916908367ffffffffffffffff1602179055506040820151816002019081610444919061139c565b50606082015181600301559050506001600080828254610464919061149d565b92505081905550505050565b6000600260008373ffffffffffffffffffffffffffffffffffffffff1673ffffffffffffffffffffffffffffffffffffffff16815260200190815260200160002060020160009054906101000a900460ff169050919050565b60026020528060005260406000206000915090508060000180546104ec906111bf565b80601f0160208091040260200160405190810160405280929190818152602001828054610518906111bf565b80156105655780601f1061053a57610100808354040283529160200191610565565b820191906000526020600020905b81548152906001019060200180831161054857829003601f168201915b50505050509080600101805461057a906111bf565b80601f01602080910402602001604051908101604052809291908181526020018280546105a6906111bf565b80156105f35780601f106105c8576101008083540402835291602001916105f3565b820191906000526020600020905b8154815290600101906020018083116105d657829003601f168201915b5050505050908060020160009054906101000a900460ff16905083565b6000604051806060016040528085815260200184815260200160001515815250905080600260008473ffffffffffffffffffffffffffffffffffffffff1673ffffffffffffffffffffffffffffffffffffffff1681526020019081526020016000206000820151816000019081610687919061139c565b50602082015181600101908161069d919061139c565b5060408201518160020160006101000a81548160ff02191690831515021790555090505050505050565b600360009054906101000a900473ffffffffffffffffffffffffffffffffffffffff1681565b60005481565b606080600360009054906101000a900473ffffffffffffffffffffffffffffffffffffffff1673ffffffffffffffffffffffffffffffffffffffff163373ffffffffffffffffffffffffffffffffffffffff160361075057600080fd5b8091505090565b600160205280600052604060002060009150905080600001805461077a906111bf565b80601f01602080910402602001604051908101604052809291908181526020018280546107a6906111bf565b80156107f35780601f106107c8576101008083540402835291602001916107f3565b820191906000526020600020905b8154815290600101906020018083116107d657829003601f168201915b5050505050908060010160009054906101000a900467ffffffffffffffff1690806002018054610822906111bf565b80601f016020809104026020016040519081016040528092919081815260200182805461084e906111bf565b801561089b5780601f106108705761010080835404028352916020019161089b565b820191906000526020600020905b81548152906001019060200180831161087e57829003601f168201915b5050505050908060030154905084565b60001515600260003373ffffffffffffffffffffffffffffffffffffffff1673ffffffffffffffffffffffffffffffffffffffff16815260200190815260200160002060020160009054906101000a900460ff1615151461090b57600080fd5b600180600083815260200190815260200160002060010160008282829054906101000a900467ffffffffffffffff1661094491906114d1565b92506101000a81548167ffffffffffffffff021916908367ffffffffffffffff1602179055506001600260003373ffffffffffffffffffffffffffffffffffffffff1673ffffffffffffffffffffffffffffffffffffffff16815260200190815260200160002060020160006101000a81548160ff02191690831515021790555050565b604051806080016040528060608152602001600067ffffffffffffffff16815260200160608152602001600081525090565b6000604051905090565b600080fd5b600080fd5b6000819050919050565b610a2181610a0e565b8114610a2c57600080fd5b50565b600081359050610a3e81610a18565b92915050565b600060208284031215610a5a57610a59610a04565b5b6000610a6884828501610a2f565b91505092915050565b600081519050919050565b600082825260208201905092915050565b60005b83811015610aab578082015181840152602081019050610a90565b60008484015250505050565b6000601f19601f8301169050919050565b6000610ad382610a71565b610add8185610a7c565b9350610aed818560208601610a8d565b610af681610ab7565b840191505092915050565b600067ffffffffffffffff82169050919050565b610b1e81610b01565b82525050565b610b2d81610a0e565b82525050565b60006080830160008301518482036000860152610b508282610ac8565b9150506020830151610b656020860182610b15565b5060408301518482036040860152610b7d8282610ac8565b9150506060830151610b926060860182610b24565b508091505092915050565b60006020820190508181036000830152610bb78184610b33565b905092915050565b600080fd5b600080fd5b7f4e487b7100000000000000000000000000000000000000000000000000000000600052604160045260246000fd5b610c0182610ab7565b810181811067ffffffffffffffff82111715610c2057610c1f610bc9565b5b80604052505050565b6000610c336109fa565b9050610c3f8282610bf8565b919050565b600067ffffffffffffffff821115610c5f57610c5e610bc9565b5b610c6882610ab7565b9050602081019050919050565b82818337600083830152505050565b6000610c97610c9284610c44565b610c29565b905082815260208101848484011115610cb357610cb2610bc4565b5b610cbe848285610c75565b509392505050565b600082601f830112610cdb57610cda610bbf565b5b8135610ceb848260208601610c84565b91505092915050565b60008060408385031215610d0b57610d0a610a04565b5b600083013567ffffffffffffffff811115610d2957610d28610a09565b5b610d3585828601610cc6565b925050602083013567ffffffffffffffff811115610d5657610d55610a09565b5b610d6285828601610cc6565b9150509250929050565b600073ffffffffffffffffffffffffffffffffffffffff82169050919050565b6000610d9782610d6c565b9050919050565b610da781610d8c565b8114610db257600080fd5b50565b600081359050610dc481610d9e565b92915050565b600060208284031215610de057610ddf610a04565b5b6000610dee84828501610db5565b91505092915050565b60008115159050919050565b610e0c81610df7565b82525050565b6000602082019050610e276000830184610e03565b92915050565b600082825260208201905092915050565b6000610e4982610a71565b610e538185610e2d565b9350610e63818560208601610a8d565b610e6c81610ab7565b840191505092915050565b60006060820190508181036000830152610e918186610e3e565b90508181036020830152610ea58185610e3e565b9050610eb46040830184610e03565b949350505050565b600080600060608486031215610ed557610ed4610a04565b5b600084013567ffffffffffffffff811115610ef357610ef2610a09565b5b610eff86828701610cc6565b935050602084013567ffffffffffffffff811115610f2057610f1f610a09565b5b610f2c86828701610cc6565b9250506040610f3d86828701610db5565b9150509250925092565b610f5081610d8c565b82525050565b6000602082019050610f6b6000830184610f47565b92915050565b610f7a81610a0e565b82525050565b6000602082019050610f956000830184610f71565b92915050565b600081519050919050565b600082825260208201905092915050565b6000819050602082019050919050565b600081519050919050565b600082825260208201905092915050565b6000819050602082019050919050565b6000610fff8383610b24565b60208301905092915050565b6000602082019050919050565b600061102382610fc7565b61102d8185610fd2565b935061103883610fe3565b8060005b838110156110695781516110508882610ff3565b975061105b8361100b565b92505060018101905061103c565b5085935050505092915050565b60006110828383611018565b905092915050565b6000602082019050919050565b60006110a282610f9b565b6110ac8185610fa6565b9350836020820285016110be85610fb7565b8060005b858110156110fa57848403895281516110db8582611076565b94506110e68361108a565b925060208a019950506001810190506110c2565b50829750879550505050505092915050565b600060208201905081810360008301526111268184611097565b905092915050565b61113781610b01565b82525050565b600060808201905081810360008301526111578187610e3e565b9050611166602083018661112e565b81810360408301526111788185610e3e565b90506111876060830184610f71565b95945050505050565b7f4e487b7100000000000000000000000000000000000000000000000000000000600052602260045260246000fd5b600060028204905060018216806111d757607f821691505b6020821081036111ea576111e9611190565b5b50919050565b60008190508160005260206000209050919050565b60006020601f8301049050919050565b600082821b905092915050565b6000600883026112527fffffffffffffffffffffffffffffffffffffffffffffffffffffffffffffffff82611215565b61125c8683611215565b95508019841693508086168417925050509392505050565b6000819050919050565b600061129961129461128f84610a0e565b611274565b610a0e565b9050919050565b6000819050919050565b6112b38361127e565b6112c76112bf826112a0565b848454611222565b825550505050565b600090565b6112dc6112cf565b6112e78184846112aa565b505050565b5b8181101561130b576113006000826112d4565b6001810190506112ed565b5050565b601f82111561135057611321816111f0565b61132a84611205565b81016020851015611339578190505b61134d61134585611205565b8301826112ec565b50505b505050565b600082821c905092915050565b600061137360001984600802611355565b1980831691505092915050565b600061138c8383611362565b9150826002028217905092915050565b6113a582610a71565b67ffffffffffffffff8111156113be576113bd610bc9565b5b6113c882546111bf565b6113d382828561130f565b600060209050601f83116001811461140657600084156113f4578287015190505b6113fe8582611380565b865550611466565b601f198416611414866111f0565b60005b8281101561143c57848901518255600182019150602085019450602081019050611417565b868310156114595784890151611455601f891682611362565b8355505b6001600288020188555050505b505050505050565b7f4e487b7100000000000000000000000000000000000000000000000000000000600052601160045260246000fd5b60006114a882610a0e565b91506114b383610a0e565b92508282019050808211156114cb576114ca61146e565b5b92915050565b60006114dc82610b01565b91506114e783610b01565b9250828201905067ffffffffffffffff8111156115075761150661146e565b5b9291505056fea2646970667358221220a57150dd2790cdea0b6555aef6c4f3789c2d7f7c55da68417ba1de804b77c89064736f6c6343000813003368747470733a2f2f75706c6f61642e77696b696d656469612e6f72672f77696b6970656469612f636f6d6d6f6e732f7468756d622f312f31342f4e6174696f6e616c5f44656d6f6372617469635f416c6c69616e63655f6c6f676f2e7376672f38303070782d4e6174696f6e616c5f44656d6f6372617469635f416c6c69616e63655f6c6f676f2e7376672e706e6768747470733a2f2f75706c6f61642e77696b696d656469612e6f72672f77696b6970656469612f636f6d6d6f6e732f7468756d622f372f37382f496e6469616e5f4e6174696f6e616c5f436f6e67726573735f6c6f676f2e7376672f38303070782d496e6469616e5f4e6174696f6e616c5f436f6e67726573735f6c6f676f2e7376672e706e6768747470733a2f2f75706c6f61642e77696b696d656469612e6f72672f77696b6970656469612f636f6d6d6f6e732f7468756d622f312f31652f4268617261746979615f4a616e6174615f50617274795f6c6f676f2e7376672f3132303070782d4268617261746979615f4a616e6174615f50617274795f6c6f676f2e7376672e706e6768747470733a2f2f75706c6f61642e77696b696d656469612e6f72672f77696b6970656469612f636f6d6d6f6e732f662f66362f4e4f54415f4f7074696f6e5f4c6f676f2e737667",
  "immutableReferences": {},
  "source": "// SPDX-License-Identifier: MIT\r\npragma solidity >=0.4.22 <0.9.0;\r\n\r\ncontract vote {\r\n    uint public candidateCount;\r\n\r\n    // participating candidates\r\n\r\n    struct Candidate {\r\n        string party_name;\r\n        uint64 voteCount;\r\n        string img_url;\r\n        uint id;\r\n    }\r\n    mapping(uint => Candidate) public candDetails;\r\n\r\n    function addCandidate(string memory _name, string memory _img_url) public {\r\n        Candidate memory newCandidate = Candidate(\r\n            _name,\r\n            0,\r\n            _img_url,\r\n            candidateCount\r\n        );\r\n        candDetails[candidateCount] = newCandidate;\r\n        candidateCount += 1;\r\n    }\r\n\r\n    // voters\r\n\r\n    struct Voter {\r\n        string name;\r\n        string aadhar;\r\n        bool hasVoted;\r\n    }\r\n    mapping(address => Voter) public voterDetails;\r\n\r\n    function addVoters(\r\n        string memory _name,\r\n        string memory _aadhar,\r\n        address _user\r\n    ) public {\r\n        Voter memory newVoter = Voter(_name, _aadhar, false);\r\n        voterDetails[_user] = newVoter;\r\n    }\r\n\r\n    // sample voters (address are relative to ganache) and participants\r\n    constructor() {\r\n        addCandidate(\r\n            \"BJP\",\r\n            \"https://upload.wikimedia.org/wikipedia/commons/thumb/1/1e/Bharatiya_Janata_Party_logo.svg/1200px-Bharatiya_Janata_Party_logo.svg.png\"\r\n        );\r\n        addCandidate(\r\n            \"INC\",\r\n            \"https://upload.wikimedia.org/wikipedia/commons/thumb/7/78/Indian_National_Congress_logo.svg/800px-Indian_National_Congress_logo.svg.png\"\r\n        );\r\n        addCandidate(\r\n            \"NDA\",\r\n            \"https://upload.wikimedia.org/wikipedia/commons/thumb/1/14/National_Democratic_Alliance_logo.svg/800px-National_Democratic_Alliance_logo.svg.png\"\r\n        );\r\n        addCandidate(\r\n            \"NOTA\",\r\n            \"https://upload.wikimedia.org/wikipedia/commons/f/f6/NOTA_Option_Logo.svg\"\r\n        );\r\n\r\n        // voters\r\n        addVoters(\r\n            \"Raja\",\r\n            \"12345678912\",\r\n            0x37AfC9Bc5804Fbbb248f59650808AbAF320F2b80\r\n        );\r\n        addVoters(\"Asmi\", \"666\", 0x8fff0a7bf0De63bc0834D23FbeEa7C630CcD94D1);\r\n        addVoters(\r\n            \"Preeti\",\r\n            \"0987654321\",\r\n            0xF8B90B06CBd25146B0d1DC4372f1252973c2C9c3\r\n        );\r\n        addVoters(\r\n            \"Yash\",\r\n            \"34243434\",\r\n            0xA1EA63BB04c851482815a79fE718E27BFB3F2914\r\n        );\r\n    }\r\n\r\n    // voting function\r\n\r\n    function voting(uint candId) public {\r\n        require(voterDetails[msg.sender].hasVoted == false);\r\n        candDetails[candId].voteCount += 1;\r\n        voterDetails[msg.sender].hasVoted = true;\r\n    }\r\n\r\n    function checkVoted(address addr) public view returns (bool) {\r\n        return voterDetails[addr].hasVoted;\r\n    }\r\n\r\n    // return style top to bottom style - i.e accourding to the result in\r\n    address public owner = 0x37AfC9Bc5804Fbbb248f59650808AbAF320F2b80;\r\n\r\n    function getResult() public view returns (uint[][] memory) {\r\n        uint[][] memory result;\r\n        require(msg.sender != owner);\r\n        // if (msg.sender == owner) {\r\n        // for (uint i = 0; i <= candidateCount; i++) {\r\n        //     result[i][0] = candDetails[i].id;\r\n        //     result[i][1] = candDetails[i].voteCount;\r\n        // }\r\n        // }\r\n        return result;\r\n    }\r\n\r\n    // function voteCount(uint id) public view returns (Candidate memory) {\r\n    //     // require(msg.sender == owner);\r\n    //     return candDetails[id];\r\n    // }\r\n\r\n    function getCandid(uint id) public view returns (Candidate memory) {\r\n        return candDetails[id];\r\n    }\r\n\r\n    /*\r\n        TODO OR MAY REQUIRED\r\n        \r\n        [-] Making addCandidate and addVoters to admin only function\r\n        [-] Create a separate dashboard for admin to add users and verify votes\r\n    */\r\n}\r\n",
  "sourcePath": "D:\\Projects\\fya-e-voting\\Smart_contract\\contracts\\vote.sol",
  "compiler": {
    "name": "solc",
    "version": "0.8.19+commit.7dd6d404.Emscripten.clang"
  },
  "schemaVersion": "3.4.13",
  "updatedAt": "2023-04-16T10:43:06.732Z",
  "networkType": "ethereum",
  "devdoc": {
    "kind": "dev",
    "methods": {},
    "version": 1
  },
  "userdoc": {
    "kind": "user",
    "methods": {},
    "version": 1
  }
}