{
  "contractName": "vote",
  "abi": [
    {
      "inputs": [],
      "stateMutability": "nonpayable",
      "type": "constructor"
    },
    {
      "inputs": [
        {
          "internalType": "uint256",
          "name": "",
          "type": "uint256"
        }
      ],
      "name": "candDetails",
      "outputs": [
        {
          "internalType": "string",
          "name": "party_name",
          "type": "string"
        },
        {
          "internalType": "uint64",
          "name": "voteCount",
          "type": "uint64"
        },
        {
          "internalType": "string",
          "name": "img_url",
          "type": "string"
        },
        {
          "internalType": "uint256",
          "name": "id",
          "type": "uint256"
        }
      ],
      "stateMutability": "view",
      "type": "function",
      "constant": true
    },
    {
      "inputs": [],
      "name": "candidateCount",
      "outputs": [
        {
          "internalType": "uint256",
          "name": "",
          "type": "uint256"
        }
      ],
      "stateMutability": "view",
      "type": "function",
      "constant": true
    },
    {
      "inputs": [
        {
          "internalType": "address",
          "name": "",
          "type": "address"
        }
      ],
      "name": "voterDetails",
      "outputs": [
        {
          "internalType": "string",
          "name": "name",
          "type": "string"
        },
        {
          "internalType": "string",
          "name": "aadhar",
          "type": "string"
        },
        {
          "internalType": "bool",
          "name": "hasVoted",
          "type": "bool"
        }
      ],
      "stateMutability": "view",
      "type": "function",
      "constant": true
    },
    {
      "inputs": [
        {
          "internalType": "string",
          "name": "_name",
          "type": "string"
        },
        {
          "internalType": "string",
          "name": "_img_url",
          "type": "string"
        }
      ],
      "name": "addCandidate",
      "outputs": [],
      "stateMutability": "nonpayable",
      "type": "function"
    },
    {
      "inputs": [
        {
          "internalType": "string",
          "name": "_name",
          "type": "string"
        },
        {
          "internalType": "string",
          "name": "_aadhar",
          "type": "string"
        },
        {
          "internalType": "address",
          "name": "_user",
          "type": "address"
        }
      ],
      "name": "addVoters",
      "outputs": [],
      "stateMutability": "nonpayable",
      "type": "function"
    },
    {
      "inputs": [
        {
          "internalType": "uint256",
          "name": "candId",
          "type": "uint256"
        }
      ],
      "name": "voting",
      "outputs": [
        {
          "internalType": "bool",
          "name": "",
          "type": "bool"
        }
      ],
      "stateMutability": "nonpayable",
      "type": "function"
    },
    {
      "inputs": [],
      "name": "getResult",
      "outputs": [
        {
          "internalType": "uint256[][]",
          "name": "",
          "type": "uint256[][]"
        }
      ],
      "stateMutability": "view",
      "type": "function",
      "constant": true
    },
    {
      "inputs": [
        {
          "internalType": "uint256",
          "name": "id",
          "type": "uint256"
        }
      ],
      "name": "getCandid",
      "outputs": [
        {
          "components": [
            {
              "internalType": "string",
              "name": "party_name",
              "type": "string"
            },
            {
              "internalType": "uint64",
              "name": "voteCount",
              "type": "uint64"
            },
            {
              "internalType": "string",
              "name": "img_url",
              "type": "string"
            },
            {
              "internalType": "uint256",
              "name": "id",
              "type": "uint256"
            }
          ],
          "internalType": "struct vote.Candidate",
          "name": "",
          "type": "tuple"
        }
      ],
      "stateMutability": "view",
      "type": "function",
      "constant": true
    }
  ],
  "bytecode": "0x60806040523480156200001157600080fd5b50620000726040518060400160405280600381526020017f424a5000000000000000000000000000000000000000000000000000000000008152506040518060c0016040528060848152602001620021ec608491396200034b60201b60201c565b620000d26040518060400160405280600381526020017f494e4300000000000000000000000000000000000000000000000000000000008152506040518060c001604052806087815260200162002165608791396200034b60201b60201c565b620001326040518060400160405280600381526020017f4e444100000000000000000000000000000000000000000000000000000000008152506040518060c00160405280608f8152602001620020d6608f91396200034b60201b60201c565b620001926040518060400160405280600481526020017f4e4f54410000000000000000000000000000000000000000000000000000000081525060405180608001604052806048815260200162002270604891396200034b60201b60201c565b620002236040518060400160405280600481526020017f52616a61000000000000000000000000000000000000000000000000000000008152506040518060400160405280600b81526020017f31323334353637383931320000000000000000000000000000000000000000008152507337afc9bc5804fbbb248f59650808abaf320f2b806200041e60201b60201c565b620002b46040518060400160405280600481526020017f41736d69000000000000000000000000000000000000000000000000000000008152506040518060400160405280600381526020017f3636360000000000000000000000000000000000000000000000000000000000815250738fff0a7bf0de63bc0834d23fbeea7c630ccd94d16200041e60201b60201c565b620003456040518060400160405280600681526020017f50726565746900000000000000000000000000000000000000000000000000008152506040518060400160405280600a81526020017f303938373635343332310000000000000000000000000000000000000000000081525073f8b90b06cbd25146b0d1dc4372f1252973c2c9c36200041e60201b60201c565b620008a4565b60006040518060800160405280848152602001600067ffffffffffffffff16815260200183815260200160005481525090508060016000805481526020019081526020016000206000820151816000019081620003a9919062000753565b5060208201518160010160006101000a81548167ffffffffffffffff021916908367ffffffffffffffff1602179055506040820151816002019081620003f0919062000753565b5060608201518160030155905050600160008082825462000412919062000869565b92505081905550505050565b6000604051806060016040528085815260200184815260200160001515815250905080600260008473ffffffffffffffffffffffffffffffffffffffff1673ffffffffffffffffffffffffffffffffffffffff168152602001908152602001600020600082015181600001908162000497919062000753565b506020820151816001019081620004af919062000753565b5060408201518160020160006101000a81548160ff02191690831515021790555090505050505050565b600081519050919050565b7f4e487b7100000000000000000000000000000000000000000000000000000000600052604160045260246000fd5b7f4e487b7100000000000000000000000000000000000000000000000000000000600052602260045260246000fd5b600060028204905060018216806200055b57607f821691505b60208210810362000571576200057062000513565b5b50919050565b60008190508160005260206000209050919050565b60006020601f8301049050919050565b600082821b905092915050565b600060088302620005db7fffffffffffffffffffffffffffffffffffffffffffffffffffffffffffffffff826200059c565b620005e786836200059c565b95508019841693508086168417925050509392505050565b6000819050919050565b6000819050919050565b6000620006346200062e6200062884620005ff565b62000609565b620005ff565b9050919050565b6000819050919050565b620006508362000613565b620006686200065f826200063b565b848454620005a9565b825550505050565b600090565b6200067f62000670565b6200068c81848462000645565b505050565b5b81811015620006b457620006a860008262000675565b60018101905062000692565b5050565b601f8211156200070357620006cd8162000577565b620006d8846200058c565b81016020851015620006e8578190505b62000700620006f7856200058c565b83018262000691565b50505b505050565b600082821c905092915050565b6000620007286000198460080262000708565b1980831691505092915050565b600062000743838362000715565b9150826002028217905092915050565b6200075e82620004d9565b67ffffffffffffffff8111156200077a5762000779620004e4565b5b62000786825462000542565b62000793828285620006b8565b600060209050601f831160018114620007cb5760008415620007b6578287015190505b620007c2858262000735565b86555062000832565b601f198416620007db8662000577565b60005b828110156200080557848901518255600182019150602085019450602081019050620007de565b8683101562000825578489015162000821601f89168262000715565b8355505b6001600288020188555050505b505050505050565b7f4e487b7100000000000000000000000000000000000000000000000000000000600052601160045260246000fd5b60006200087682620005ff565b91506200088383620005ff565b92508282019050808211156200089e576200089d6200083a565b5b92915050565b61182280620008b46000396000f3fe608060405234801561001057600080fd5b50600436106100885760003560e01c8063a9a981a31161005b578063a9a981a314610127578063de29278914610145578063ebba89b114610163578063fd4a77f11461019657610088565b806303ca6a4a1461008d57806326541b56146100bd5780635938750d146100d95780636e7268231461010b575b600080fd5b6100a760048036038101906100a29190610c6a565b6101c6565b6040516100b49190610dc3565b60405180910390f35b6100d760048036038101906100d29190610f1a565b610353565b005b6100f360048036038101906100ee9190610ff0565b610420565b60405161010293929190611082565b60405180910390f35b610125600480360381019061012091906110c7565b610567565b005b61012f61061e565b60405161013c9190611161565b60405180910390f35b61014d610624565b60405161015a91906112ed565b60405180910390f35b61017d60048036038101906101789190610c6a565b61070e565b60405161018d949392919061131e565b60405180910390f35b6101b060048036038101906101ab9190610c6a565b610862565b6040516101bd9190611371565b60405180910390f35b6101ce610bee565b600160008381526020019081526020016000206040518060800160405290816000820180546101fc906113bb565b80601f0160208091040260200160405190810160405280929190818152602001828054610228906113bb565b80156102755780601f1061024a57610100808354040283529160200191610275565b820191906000526020600020905b81548152906001019060200180831161025857829003601f168201915b505050505081526020016001820160009054906101000a900467ffffffffffffffff1667ffffffffffffffff1667ffffffffffffffff1681526020016002820180546102c0906113bb565b80601f01602080910402602001604051908101604052809291908181526020018280546102ec906113bb565b80156103395780601f1061030e57610100808354040283529160200191610339565b820191906000526020600020905b81548152906001019060200180831161031c57829003601f168201915b505050505081526020016003820154815250509050919050565b60006040518060800160405280848152602001600067ffffffffffffffff168152602001838152602001600054815250905080600160008054815260200190815260200160002060008201518160000190816103af9190611598565b5060208201518160010160006101000a81548167ffffffffffffffff021916908367ffffffffffffffff16021790555060408201518160020190816103f49190611598565b506060820151816003015590505060016000808282546104149190611699565b92505081905550505050565b6002602052806000526040600020600091509050806000018054610443906113bb565b80601f016020809104026020016040519081016040528092919081815260200182805461046f906113bb565b80156104bc5780601f10610491576101008083540402835291602001916104bc565b820191906000526020600020905b81548152906001019060200180831161049f57829003601f168201915b5050505050908060010180546104d1906113bb565b80601f01602080910402602001604051908101604052809291908181526020018280546104fd906113bb565b801561054a5780601f1061051f5761010080835404028352916020019161054a565b820191906000526020600020905b81548152906001019060200180831161052d57829003601f168201915b5050505050908060020160009054906101000a900460ff16905083565b6000604051806060016040528085815260200184815260200160001515815250905080600260008473ffffffffffffffffffffffffffffffffffffffff1673ffffffffffffffffffffffffffffffffffffffff16815260200190815260200160002060008201518160000190816105de9190611598565b5060208201518160010190816105f49190611598565b5060408201518160020160006101000a81548160ff02191690831515021790555090505050505050565b60005481565b60608060005b600054811161070657600160008281526020019081526020016000206003015482828151811061065d5761065c6116cd565b5b6020026020010151600081518110610678576106776116cd565b5b6020026020010181815250506001600082815260200190815260200160002060010160009054906101000a900467ffffffffffffffff1667ffffffffffffffff168282815181106106cc576106cb6116cd565b5b60200260200101516001815181106106e7576106e66116cd565b5b60200260200101818152505080806106fe906116fc565b91505061062a565b508091505090565b6001602052806000526040600020600091509050806000018054610731906113bb565b80601f016020809104026020016040519081016040528092919081815260200182805461075d906113bb565b80156107aa5780601f1061077f576101008083540402835291602001916107aa565b820191906000526020600020905b81548152906001019060200180831161078d57829003601f168201915b5050505050908060010160009054906101000a900467ffffffffffffffff16908060020180546107d9906113bb565b80601f0160208091040260200160405190810160405280929190818152602001828054610805906113bb565b80156108525780601f1061082757610100808354040283529160200191610852565b820191906000526020600020905b81548152906001019060200180831161083557829003601f168201915b5050505050908060030154905084565b6000801515600260003373ffffffffffffffffffffffffffffffffffffffff1673ffffffffffffffffffffffffffffffffffffffff16815260200190815260200160002060020160009054906101000a900460ff161515146108f9576040517f08c379a00000000000000000000000000000000000000000000000000000000081526004016108f090611790565b60405180910390fd5b600260003373ffffffffffffffffffffffffffffffffffffffff1673ffffffffffffffffffffffffffffffffffffffff16815260200190815260200160002060020160009054906101000a900460ff16156109575760009050610be9565b600180600084815260200190815260200160002060010160008282829054906101000a900467ffffffffffffffff1661099091906117b0565b92506101000a81548167ffffffffffffffff021916908367ffffffffffffffff1602179055506000600260003373ffffffffffffffffffffffffffffffffffffffff1673ffffffffffffffffffffffffffffffffffffffff168152602001908152602001600020604051806060016040529081600082018054610a12906113bb565b80601f0160208091040260200160405190810160405280929190818152602001828054610a3e906113bb565b8015610a8b5780601f10610a6057610100808354040283529160200191610a8b565b820191906000526020600020905b815481529060010190602001808311610a6e57829003601f168201915b50505050508152602001600182018054610aa4906113bb565b80601f0160208091040260200160405190810160405280929190818152602001828054610ad0906113bb565b8015610b1d5780601f10610af257610100808354040283529160200191610b1d565b820191906000526020600020905b815481529060010190602001808311610b0057829003601f168201915b505050505081526020016002820160009054906101000a900460ff1615151515815250509050600181604001901515908115158152505080600260003373ffffffffffffffffffffffffffffffffffffffff1673ffffffffffffffffffffffffffffffffffffffff1681526020019081526020016000206000820151816000019081610ba99190611598565b506020820151816001019081610bbf9190611598565b5060408201518160020160006101000a81548160ff02191690831515021790555090505060019150505b919050565b604051806080016040528060608152602001600067ffffffffffffffff16815260200160608152602001600081525090565b6000604051905090565b600080fd5b600080fd5b6000819050919050565b610c4781610c34565b8114610c5257600080fd5b50565b600081359050610c6481610c3e565b92915050565b600060208284031215610c8057610c7f610c2a565b5b6000610c8e84828501610c55565b91505092915050565b600081519050919050565b600082825260208201905092915050565b60005b83811015610cd1578082015181840152602081019050610cb6565b60008484015250505050565b6000601f19601f8301169050919050565b6000610cf982610c97565b610d038185610ca2565b9350610d13818560208601610cb3565b610d1c81610cdd565b840191505092915050565b600067ffffffffffffffff82169050919050565b610d4481610d27565b82525050565b610d5381610c34565b82525050565b60006080830160008301518482036000860152610d768282610cee565b9150506020830151610d8b6020860182610d3b565b5060408301518482036040860152610da38282610cee565b9150506060830151610db86060860182610d4a565b508091505092915050565b60006020820190508181036000830152610ddd8184610d59565b905092915050565b600080fd5b600080fd5b7f4e487b7100000000000000000000000000000000000000000000000000000000600052604160045260246000fd5b610e2782610cdd565b810181811067ffffffffffffffff82111715610e4657610e45610def565b5b80604052505050565b6000610e59610c20565b9050610e658282610e1e565b919050565b600067ffffffffffffffff821115610e8557610e84610def565b5b610e8e82610cdd565b9050602081019050919050565b82818337600083830152505050565b6000610ebd610eb884610e6a565b610e4f565b905082815260208101848484011115610ed957610ed8610dea565b5b610ee4848285610e9b565b509392505050565b600082601f830112610f0157610f00610de5565b5b8135610f11848260208601610eaa565b91505092915050565b60008060408385031215610f3157610f30610c2a565b5b600083013567ffffffffffffffff811115610f4f57610f4e610c2f565b5b610f5b85828601610eec565b925050602083013567ffffffffffffffff811115610f7c57610f7b610c2f565b5b610f8885828601610eec565b9150509250929050565b600073ffffffffffffffffffffffffffffffffffffffff82169050919050565b6000610fbd82610f92565b9050919050565b610fcd81610fb2565b8114610fd857600080fd5b50565b600081359050610fea81610fc4565b92915050565b60006020828403121561100657611005610c2a565b5b600061101484828501610fdb565b91505092915050565b600082825260208201905092915050565b600061103982610c97565b611043818561101d565b9350611053818560208601610cb3565b61105c81610cdd565b840191505092915050565b60008115159050919050565b61107c81611067565b82525050565b6000606082019050818103600083015261109c818661102e565b905081810360208301526110b0818561102e565b90506110bf6040830184611073565b949350505050565b6000806000606084860312156110e0576110df610c2a565b5b600084013567ffffffffffffffff8111156110fe576110fd610c2f565b5b61110a86828701610eec565b935050602084013567ffffffffffffffff81111561112b5761112a610c2f565b5b61113786828701610eec565b925050604061114886828701610fdb565b9150509250925092565b61115b81610c34565b82525050565b60006020820190506111766000830184611152565b92915050565b600081519050919050565b600082825260208201905092915050565b6000819050602082019050919050565b600081519050919050565b600082825260208201905092915050565b6000819050602082019050919050565b60006111e08383610d4a565b60208301905092915050565b6000602082019050919050565b6000611204826111a8565b61120e81856111b3565b9350611219836111c4565b8060005b8381101561124a57815161123188826111d4565b975061123c836111ec565b92505060018101905061121d565b5085935050505092915050565b600061126383836111f9565b905092915050565b6000602082019050919050565b60006112838261117c565b61128d8185611187565b93508360208202850161129f85611198565b8060005b858110156112db57848403895281516112bc8582611257565b94506112c78361126b565b925060208a019950506001810190506112a3565b50829750879550505050505092915050565b600060208201905081810360008301526113078184611278565b905092915050565b61131881610d27565b82525050565b60006080820190508181036000830152611338818761102e565b9050611347602083018661130f565b8181036040830152611359818561102e565b90506113686060830184611152565b95945050505050565b60006020820190506113866000830184611073565b92915050565b7f4e487b7100000000000000000000000000000000000000000000000000000000600052602260045260246000fd5b600060028204905060018216806113d357607f821691505b6020821081036113e6576113e561138c565b5b50919050565b60008190508160005260206000209050919050565b60006020601f8301049050919050565b600082821b905092915050565b60006008830261144e7fffffffffffffffffffffffffffffffffffffffffffffffffffffffffffffffff82611411565b6114588683611411565b95508019841693508086168417925050509392505050565b6000819050919050565b600061149561149061148b84610c34565b611470565b610c34565b9050919050565b6000819050919050565b6114af8361147a565b6114c36114bb8261149c565b84845461141e565b825550505050565b600090565b6114d86114cb565b6114e38184846114a6565b505050565b5b81811015611507576114fc6000826114d0565b6001810190506114e9565b5050565b601f82111561154c5761151d816113ec565b61152684611401565b81016020851015611535578190505b61154961154185611401565b8301826114e8565b50505b505050565b600082821c905092915050565b600061156f60001984600802611551565b1980831691505092915050565b6000611588838361155e565b9150826002028217905092915050565b6115a182610c97565b67ffffffffffffffff8111156115ba576115b9610def565b5b6115c482546113bb565b6115cf82828561150b565b600060209050601f83116001811461160257600084156115f0578287015190505b6115fa858261157c565b865550611662565b601f198416611610866113ec565b60005b8281101561163857848901518255600182019150602085019450602081019050611613565b868310156116555784890151611651601f89168261155e565b8355505b6001600288020188555050505b505050505050565b7f4e487b7100000000000000000000000000000000000000000000000000000000600052601160045260246000fd5b60006116a482610c34565b91506116af83610c34565b92508282019050808211156116c7576116c661166a565b5b92915050565b7f4e487b7100000000000000000000000000000000000000000000000000000000600052603260045260246000fd5b600061170782610c34565b91507fffffffffffffffffffffffffffffffffffffffffffffffffffffffffffffffff82036117395761173861166a565b5b600182019050919050565b7f66616c7365000000000000000000000000000000000000000000000000000000600082015250565b600061177a60058361101d565b915061178582611744565b602082019050919050565b600060208201905081810360008301526117a98161176d565b9050919050565b60006117bb82610d27565b91506117c683610d27565b9250828201905067ffffffffffffffff8111156117e6576117e561166a565b5b9291505056fea2646970667358221220bbeb70118aa0fab7bb71c6c1e2810302baa3d13484c34f1e91ae4c9e1818ae5b64736f6c6343000813003368747470733a2f2f75706c6f61642e77696b696d656469612e6f72672f77696b6970656469612f636f6d6d6f6e732f7468756d622f312f31342f4e6174696f6e616c5f44656d6f6372617469635f416c6c69616e63655f6c6f676f2e7376672f38303070782d4e6174696f6e616c5f44656d6f6372617469635f416c6c69616e63655f6c6f676f2e7376672e706e6768747470733a2f2f75706c6f61642e77696b696d656469612e6f72672f77696b6970656469612f636f6d6d6f6e732f7468756d622f372f37382f496e6469616e5f4e6174696f6e616c5f436f6e67726573735f6c6f676f2e7376672f38303070782d496e6469616e5f4e6174696f6e616c5f436f6e67726573735f6c6f676f2e7376672e706e6768747470733a2f2f75706c6f61642e77696b696d656469612e6f72672f77696b6970656469612f636f6d6d6f6e732f7468756d622f312f31652f4268617261746979615f4a616e6174615f50617274795f6c6f676f2e7376672f3132303070782d4268617261746979615f4a616e6174615f50617274795f6c6f676f2e7376672e706e6768747470733a2f2f75706c6f61642e77696b696d656469612e6f72672f77696b6970656469612f636f6d6d6f6e732f662f66362f4e4f54415f4f7074696f6e5f4c6f676f2e737667",
  "immutableReferences": {},
  "source": "// SPDX-License-Identifier: MIT\r\npragma solidity >=0.4.22 <0.9.0;\r\n\r\ncontract vote {\r\n    \r\n    uint public candidateCount;\r\n\r\n\r\n    // participating candidates\r\n    \r\n    struct Candidate{\r\n        string party_name;\r\n        uint64 voteCount;\r\n        string img_url;\r\n        uint id;\r\n    }\r\n    mapping(uint => Candidate)  public candDetails;\r\n\r\n    function addCandidate(string memory _name, string memory _img_url) public{\r\n        Candidate memory newCandidate = Candidate(_name, 0, _img_url, candidateCount);\r\n        candDetails[candidateCount] = newCandidate;\r\n        candidateCount += 1;\r\n    }\r\n\r\n    // voters\r\n\r\n    struct Voter{\r\n        string name;\r\n        string aadhar;\r\n        bool hasVoted;\r\n    }\r\n    mapping(address => Voter) public voterDetails;\r\n\r\n    function addVoters(string memory _name, string memory _aadhar, address _user) public{\r\n        Voter memory newVoter = Voter(_name, _aadhar, false);\r\n        voterDetails[_user] = newVoter;\r\n    }\r\n\r\n    // sample voters (address are relative to ganache) and participants\r\n    constructor(){\r\n        addCandidate(\"BJP\",\"https://upload.wikimedia.org/wikipedia/commons/thumb/1/1e/Bharatiya_Janata_Party_logo.svg/1200px-Bharatiya_Janata_Party_logo.svg.png\");\r\n        addCandidate(\"INC\",\"https://upload.wikimedia.org/wikipedia/commons/thumb/7/78/Indian_National_Congress_logo.svg/800px-Indian_National_Congress_logo.svg.png\");\r\n        addCandidate(\"NDA\",\"https://upload.wikimedia.org/wikipedia/commons/thumb/1/14/National_Democratic_Alliance_logo.svg/800px-National_Democratic_Alliance_logo.svg.png\");\r\n        addCandidate(\"NOTA\",\"https://upload.wikimedia.org/wikipedia/commons/f/f6/NOTA_Option_Logo.svg\");\r\n    \r\n        // voters\r\n        addVoters(\"Raja\",\"12345678912\", 0x37AfC9Bc5804Fbbb248f59650808AbAF320F2b80);\r\n        addVoters(\"Asmi\", \"666\", 0x8fff0a7bf0De63bc0834D23FbeEa7C630CcD94D1);\r\n        addVoters(\"Preeti\", \"0987654321\", 0xF8B90B06CBd25146B0d1DC4372f1252973c2C9c3);\r\n    }\r\n\r\n\r\n    // voting function\r\n\r\n    function voting(uint candId) public returns(bool){\r\n        require(voterDetails[msg.sender].hasVoted == false, \"false\");\r\n        if(voterDetails[msg.sender].hasVoted) return false;\r\n        candDetails[candId].voteCount += 1;\r\n        Voter memory newVote = voterDetails[msg.sender];\r\n        newVote.hasVoted = true;\r\n        voterDetails[msg.sender] = newVote;\r\n        return true;\r\n    }\r\n\r\n    // return style top to bottom style - i.e accourding to the result in \r\n\r\n    function getResult() public view returns(uint [][] memory){\r\n        uint[][] memory result;\r\n        for (uint i = 0; i <= candidateCount; i++){\r\n            result[i][0] = candDetails[i].id;\r\n            result[i][1] = candDetails[i].voteCount;\r\n        }\r\n        return result;\r\n    }\r\n\r\n    function getCandid(uint id) public view returns(Candidate memory){\r\n        return candDetails[id];\r\n    }\r\n    \r\n    /*\r\n        TODO OR MAY REQUIRED\r\n        \r\n        [-] Making addCandidate and addVoters to admin only function\r\n        [-] Create a separate dashboard for admin to add users and verify votes\r\n    */\r\n}",
  "sourcePath": "D:\\Projects\\fya-e-voting\\Smart_contract\\contracts\\vote.sol",
  "compiler": {
    "name": "solc",
    "version": "0.8.19+commit.7dd6d404.Emscripten.clang"
  },
  "schemaVersion": "3.4.13",
  "updatedAt": "2023-04-16T00:26:45.485Z",
  "networkType": "ethereum",
  "devdoc": {
    "kind": "dev",
    "methods": {},
    "version": 1
  },
  "userdoc": {
    "kind": "user",
    "methods": {},
    "version": 1
  }
}