{
  "contractName": "vote",
  "abi": [
    {
      "inputs": [],
      "stateMutability": "nonpayable",
      "type": "constructor"
    },
    {
      "inputs": [
        {
          "internalType": "uint256",
          "name": "",
          "type": "uint256"
        }
      ],
      "name": "candDetails",
      "outputs": [
        {
          "internalType": "string",
          "name": "party_name",
          "type": "string"
        },
        {
          "internalType": "uint64",
          "name": "voteCount",
          "type": "uint64"
        },
        {
          "internalType": "string",
          "name": "img_url",
          "type": "string"
        },
        {
          "internalType": "uint256",
          "name": "id",
          "type": "uint256"
        }
      ],
      "stateMutability": "view",
      "type": "function",
      "constant": true
    },
    {
      "inputs": [],
      "name": "candidateCount",
      "outputs": [
        {
          "internalType": "uint256",
          "name": "",
          "type": "uint256"
        }
      ],
      "stateMutability": "view",
      "type": "function",
      "constant": true
    },
    {
      "inputs": [
        {
          "internalType": "address",
          "name": "",
          "type": "address"
        }
      ],
      "name": "voterDetails",
      "outputs": [
        {
          "internalType": "string",
          "name": "name",
          "type": "string"
        },
        {
          "internalType": "string",
          "name": "aadhar",
          "type": "string"
        },
        {
          "internalType": "bool",
          "name": "hasVoted",
          "type": "bool"
        }
      ],
      "stateMutability": "view",
      "type": "function",
      "constant": true
    },
    {
      "inputs": [
        {
          "internalType": "string",
          "name": "_name",
          "type": "string"
        },
        {
          "internalType": "string",
          "name": "_img_url",
          "type": "string"
        }
      ],
      "name": "addCandidate",
      "outputs": [],
      "stateMutability": "nonpayable",
      "type": "function"
    },
    {
      "inputs": [
        {
          "internalType": "string",
          "name": "_name",
          "type": "string"
        },
        {
          "internalType": "string",
          "name": "_aadhar",
          "type": "string"
        },
        {
          "internalType": "address",
          "name": "_user",
          "type": "address"
        }
      ],
      "name": "addVoters",
      "outputs": [],
      "stateMutability": "nonpayable",
      "type": "function"
    },
    {
      "inputs": [
        {
          "internalType": "uint256",
          "name": "candId",
          "type": "uint256"
        }
      ],
      "name": "voting",
      "outputs": [],
      "stateMutability": "nonpayable",
      "type": "function"
    },
    {
      "inputs": [
        {
          "internalType": "address",
          "name": "addr",
          "type": "address"
        }
      ],
      "name": "checkVoted",
      "outputs": [
        {
          "internalType": "bool",
          "name": "",
          "type": "bool"
        }
      ],
      "stateMutability": "view",
      "type": "function",
      "constant": true
    },
    {
      "inputs": [],
      "name": "getResult",
      "outputs": [
        {
          "internalType": "uint256[][]",
          "name": "",
          "type": "uint256[][]"
        }
      ],
      "stateMutability": "view",
      "type": "function",
      "constant": true
    },
    {
      "inputs": [
        {
          "internalType": "uint256",
          "name": "id",
          "type": "uint256"
        }
      ],
      "name": "getCandid",
      "outputs": [
        {
          "components": [
            {
              "internalType": "string",
              "name": "party_name",
              "type": "string"
            },
            {
              "internalType": "uint64",
              "name": "voteCount",
              "type": "uint64"
            },
            {
              "internalType": "string",
              "name": "img_url",
              "type": "string"
            },
            {
              "internalType": "uint256",
              "name": "id",
              "type": "uint256"
            }
          ],
          "internalType": "struct vote.Candidate",
          "name": "",
          "type": "tuple"
        }
      ],
      "stateMutability": "view",
      "type": "function",
      "constant": true
    }
  ],
  "bytecode": "0x60806040527337afc9bc5804fbbb248f59650808abaf320f2b80600360006101000a81548173ffffffffffffffffffffffffffffffffffffffff021916908373ffffffffffffffffffffffffffffffffffffffff1602179055503480156200006657600080fd5b50620000c76040518060400160405280600381526020017f424a5000000000000000000000000000000000000000000000000000000000008152506040518060c001604052806084815260200162001f7a608491396200043160201b60201c565b620001276040518060400160405280600381526020017f494e4300000000000000000000000000000000000000000000000000000000008152506040518060c001604052806087815260200162001ef3608791396200043160201b60201c565b620001876040518060400160405280600381526020017f4e444100000000000000000000000000000000000000000000000000000000008152506040518060c00160405280608f815260200162001e64608f91396200043160201b60201c565b620001e76040518060400160405280600481526020017f4e4f54410000000000000000000000000000000000000000000000000000000081525060405180608001604052806048815260200162001ffe604891396200043160201b60201c565b620002786040518060400160405280600481526020017f52616a61000000000000000000000000000000000000000000000000000000008152506040518060400160405280600b81526020017f31323334353637383931320000000000000000000000000000000000000000008152507337afc9bc5804fbbb248f59650808abaf320f2b806200050460201b60201c565b620003096040518060400160405280600481526020017f41736d69000000000000000000000000000000000000000000000000000000008152506040518060400160405280600381526020017f3636360000000000000000000000000000000000000000000000000000000000815250738fff0a7bf0de63bc0834d23fbeea7c630ccd94d16200050460201b60201c565b6200039a6040518060400160405280600681526020017f50726565746900000000000000000000000000000000000000000000000000008152506040518060400160405280600a81526020017f303938373635343332310000000000000000000000000000000000000000000081525073f8b90b06cbd25146b0d1dc4372f1252973c2c9c36200050460201b60201c565b6200042b6040518060400160405280600481526020017f59617368000000000000000000000000000000000000000000000000000000008152506040518060400160405280600881526020017f333432343334333400000000000000000000000000000000000000000000000081525073a1ea63bb04c851482815a79fe718e27bfb3f29146200050460201b60201c565b6200098a565b60006040518060800160405280848152602001600067ffffffffffffffff168152602001838152602001600054815250905080600160008054815260200190815260200160002060008201518160000190816200048f919062000839565b5060208201518160010160006101000a81548167ffffffffffffffff021916908367ffffffffffffffff1602179055506040820151816002019081620004d6919062000839565b50606082015181600301559050506001600080828254620004f891906200094f565b92505081905550505050565b6000604051806060016040528085815260200184815260200160001515815250905080600260008473ffffffffffffffffffffffffffffffffffffffff1673ffffffffffffffffffffffffffffffffffffffff16815260200190815260200160002060008201518160000190816200057d919062000839565b50602082015181600101908162000595919062000839565b5060408201518160020160006101000a81548160ff02191690831515021790555090505050505050565b600081519050919050565b7f4e487b7100000000000000000000000000000000000000000000000000000000600052604160045260246000fd5b7f4e487b7100000000000000000000000000000000000000000000000000000000600052602260045260246000fd5b600060028204905060018216806200064157607f821691505b602082108103620006575762000656620005f9565b5b50919050565b60008190508160005260206000209050919050565b60006020601f8301049050919050565b600082821b905092915050565b600060088302620006c17fffffffffffffffffffffffffffffffffffffffffffffffffffffffffffffffff8262000682565b620006cd868362000682565b95508019841693508086168417925050509392505050565b6000819050919050565b6000819050919050565b60006200071a620007146200070e84620006e5565b620006ef565b620006e5565b9050919050565b6000819050919050565b6200073683620006f9565b6200074e620007458262000721565b8484546200068f565b825550505050565b600090565b6200076562000756565b620007728184846200072b565b505050565b5b818110156200079a576200078e6000826200075b565b60018101905062000778565b5050565b601f821115620007e957620007b3816200065d565b620007be8462000672565b81016020851015620007ce578190505b620007e6620007dd8562000672565b83018262000777565b50505b505050565b600082821c905092915050565b60006200080e60001984600802620007ee565b1980831691505092915050565b6000620008298383620007fb565b9150826002028217905092915050565b6200084482620005bf565b67ffffffffffffffff81111562000860576200085f620005ca565b5b6200086c825462000628565b620008798282856200079e565b600060209050601f831160018114620008b157600084156200089c578287015190505b620008a885826200081b565b86555062000918565b601f198416620008c1866200065d565b60005b82811015620008eb57848901518255600182019150602085019450602081019050620008c4565b868310156200090b578489015162000907601f891682620007fb565b8355505b6001600288020188555050505b505050505050565b7f4e487b7100000000000000000000000000000000000000000000000000000000600052601160045260246000fd5b60006200095c82620006e5565b91506200096983620006e5565b925082820190508082111562000984576200098362000920565b5b92915050565b6114ca806200099a6000396000f3fe608060405234801561001057600080fd5b50600436106100935760003560e01c80636e726823116100665780636e72682314610146578063a9a981a314610162578063de29278914610180578063ebba89b11461019e578063fd4a77f1146101d157610093565b806303ca6a4a1461009857806326541b56146100c857806328b44471146100e45780635938750d14610114575b600080fd5b6100b260048036038101906100ad91906109f5565b6101ed565b6040516100bf9190610b4e565b60405180910390f35b6100e260048036038101906100dd9190610ca5565b61037a565b005b6100fe60048036038101906100f99190610d7b565b610447565b60405161010b9190610dc3565b60405180910390f35b61012e60048036038101906101299190610d7b565b6104a0565b60405161013d93929190610e28565b60405180910390f35b610160600480360381019061015b9190610e6d565b6105e7565b005b61016a61069e565b6040516101779190610f07565b60405180910390f35b6101886106a4565b6040516101959190611093565b60405180910390f35b6101b860048036038101906101b391906109f5565b610708565b6040516101c894939291906110c4565b60405180910390f35b6101eb60048036038101906101e691906109f5565b61085c565b005b6101f5610979565b6001600083815260200190815260200160002060405180608001604052908160008201805461022390611146565b80601f016020809104026020016040519081016040528092919081815260200182805461024f90611146565b801561029c5780601f106102715761010080835404028352916020019161029c565b820191906000526020600020905b81548152906001019060200180831161027f57829003601f168201915b505050505081526020016001820160009054906101000a900467ffffffffffffffff1667ffffffffffffffff1667ffffffffffffffff1681526020016002820180546102e790611146565b80601f016020809104026020016040519081016040528092919081815260200182805461031390611146565b80156103605780601f1061033557610100808354040283529160200191610360565b820191906000526020600020905b81548152906001019060200180831161034357829003601f168201915b505050505081526020016003820154815250509050919050565b60006040518060800160405280848152602001600067ffffffffffffffff168152602001838152602001600054815250905080600160008054815260200190815260200160002060008201518160000190816103d69190611323565b5060208201518160010160006101000a81548167ffffffffffffffff021916908367ffffffffffffffff160217905550604082015181600201908161041b9190611323565b5060608201518160030155905050600160008082825461043b9190611424565b92505081905550505050565b6000600260008373ffffffffffffffffffffffffffffffffffffffff1673ffffffffffffffffffffffffffffffffffffffff16815260200190815260200160002060020160009054906101000a900460ff169050919050565b60026020528060005260406000206000915090508060000180546104c390611146565b80601f01602080910402602001604051908101604052809291908181526020018280546104ef90611146565b801561053c5780601f106105115761010080835404028352916020019161053c565b820191906000526020600020905b81548152906001019060200180831161051f57829003601f168201915b50505050509080600101805461055190611146565b80601f016020809104026020016040519081016040528092919081815260200182805461057d90611146565b80156105ca5780601f1061059f576101008083540402835291602001916105ca565b820191906000526020600020905b8154815290600101906020018083116105ad57829003601f168201915b5050505050908060020160009054906101000a900460ff16905083565b6000604051806060016040528085815260200184815260200160001515815250905080600260008473ffffffffffffffffffffffffffffffffffffffff1673ffffffffffffffffffffffffffffffffffffffff168152602001908152602001600020600082015181600001908161065e9190611323565b5060208201518160010190816106749190611323565b5060408201518160020160006101000a81548160ff02191690831515021790555090505050505050565b60005481565b606080600360009054906101000a900473ffffffffffffffffffffffffffffffffffffffff1673ffffffffffffffffffffffffffffffffffffffff163373ffffffffffffffffffffffffffffffffffffffff160361070157600080fd5b8091505090565b600160205280600052604060002060009150905080600001805461072b90611146565b80601f016020809104026020016040519081016040528092919081815260200182805461075790611146565b80156107a45780601f10610779576101008083540402835291602001916107a4565b820191906000526020600020905b81548152906001019060200180831161078757829003601f168201915b5050505050908060010160009054906101000a900467ffffffffffffffff16908060020180546107d390611146565b80601f01602080910402602001604051908101604052809291908181526020018280546107ff90611146565b801561084c5780601f106108215761010080835404028352916020019161084c565b820191906000526020600020905b81548152906001019060200180831161082f57829003601f168201915b5050505050908060030154905084565b60001515600260003373ffffffffffffffffffffffffffffffffffffffff1673ffffffffffffffffffffffffffffffffffffffff16815260200190815260200160002060020160009054906101000a900460ff161515146108bc57600080fd5b600180600083815260200190815260200160002060010160008282829054906101000a900467ffffffffffffffff166108f59190611458565b92506101000a81548167ffffffffffffffff021916908367ffffffffffffffff1602179055506001600260003373ffffffffffffffffffffffffffffffffffffffff1673ffffffffffffffffffffffffffffffffffffffff16815260200190815260200160002060020160006101000a81548160ff02191690831515021790555050565b604051806080016040528060608152602001600067ffffffffffffffff16815260200160608152602001600081525090565b6000604051905090565b600080fd5b600080fd5b6000819050919050565b6109d2816109bf565b81146109dd57600080fd5b50565b6000813590506109ef816109c9565b92915050565b600060208284031215610a0b57610a0a6109b5565b5b6000610a19848285016109e0565b91505092915050565b600081519050919050565b600082825260208201905092915050565b60005b83811015610a5c578082015181840152602081019050610a41565b60008484015250505050565b6000601f19601f8301169050919050565b6000610a8482610a22565b610a8e8185610a2d565b9350610a9e818560208601610a3e565b610aa781610a68565b840191505092915050565b600067ffffffffffffffff82169050919050565b610acf81610ab2565b82525050565b610ade816109bf565b82525050565b60006080830160008301518482036000860152610b018282610a79565b9150506020830151610b166020860182610ac6565b5060408301518482036040860152610b2e8282610a79565b9150506060830151610b436060860182610ad5565b508091505092915050565b60006020820190508181036000830152610b688184610ae4565b905092915050565b600080fd5b600080fd5b7f4e487b7100000000000000000000000000000000000000000000000000000000600052604160045260246000fd5b610bb282610a68565b810181811067ffffffffffffffff82111715610bd157610bd0610b7a565b5b80604052505050565b6000610be46109ab565b9050610bf08282610ba9565b919050565b600067ffffffffffffffff821115610c1057610c0f610b7a565b5b610c1982610a68565b9050602081019050919050565b82818337600083830152505050565b6000610c48610c4384610bf5565b610bda565b905082815260208101848484011115610c6457610c63610b75565b5b610c6f848285610c26565b509392505050565b600082601f830112610c8c57610c8b610b70565b5b8135610c9c848260208601610c35565b91505092915050565b60008060408385031215610cbc57610cbb6109b5565b5b600083013567ffffffffffffffff811115610cda57610cd96109ba565b5b610ce685828601610c77565b925050602083013567ffffffffffffffff811115610d0757610d066109ba565b5b610d1385828601610c77565b9150509250929050565b600073ffffffffffffffffffffffffffffffffffffffff82169050919050565b6000610d4882610d1d565b9050919050565b610d5881610d3d565b8114610d6357600080fd5b50565b600081359050610d7581610d4f565b92915050565b600060208284031215610d9157610d906109b5565b5b6000610d9f84828501610d66565b91505092915050565b60008115159050919050565b610dbd81610da8565b82525050565b6000602082019050610dd86000830184610db4565b92915050565b600082825260208201905092915050565b6000610dfa82610a22565b610e048185610dde565b9350610e14818560208601610a3e565b610e1d81610a68565b840191505092915050565b60006060820190508181036000830152610e428186610def565b90508181036020830152610e568185610def565b9050610e656040830184610db4565b949350505050565b600080600060608486031215610e8657610e856109b5565b5b600084013567ffffffffffffffff811115610ea457610ea36109ba565b5b610eb086828701610c77565b935050602084013567ffffffffffffffff811115610ed157610ed06109ba565b5b610edd86828701610c77565b9250506040610eee86828701610d66565b9150509250925092565b610f01816109bf565b82525050565b6000602082019050610f1c6000830184610ef8565b92915050565b600081519050919050565b600082825260208201905092915050565b6000819050602082019050919050565b600081519050919050565b600082825260208201905092915050565b6000819050602082019050919050565b6000610f868383610ad5565b60208301905092915050565b6000602082019050919050565b6000610faa82610f4e565b610fb48185610f59565b9350610fbf83610f6a565b8060005b83811015610ff0578151610fd78882610f7a565b9750610fe283610f92565b925050600181019050610fc3565b5085935050505092915050565b60006110098383610f9f565b905092915050565b6000602082019050919050565b600061102982610f22565b6110338185610f2d565b93508360208202850161104585610f3e565b8060005b8581101561108157848403895281516110628582610ffd565b945061106d83611011565b925060208a01995050600181019050611049565b50829750879550505050505092915050565b600060208201905081810360008301526110ad818461101e565b905092915050565b6110be81610ab2565b82525050565b600060808201905081810360008301526110de8187610def565b90506110ed60208301866110b5565b81810360408301526110ff8185610def565b905061110e6060830184610ef8565b95945050505050565b7f4e487b7100000000000000000000000000000000000000000000000000000000600052602260045260246000fd5b6000600282049050600182168061115e57607f821691505b60208210810361117157611170611117565b5b50919050565b60008190508160005260206000209050919050565b60006020601f8301049050919050565b600082821b905092915050565b6000600883026111d97fffffffffffffffffffffffffffffffffffffffffffffffffffffffffffffffff8261119c565b6111e3868361119c565b95508019841693508086168417925050509392505050565b6000819050919050565b600061122061121b611216846109bf565b6111fb565b6109bf565b9050919050565b6000819050919050565b61123a83611205565b61124e61124682611227565b8484546111a9565b825550505050565b600090565b611263611256565b61126e818484611231565b505050565b5b818110156112925761128760008261125b565b600181019050611274565b5050565b601f8211156112d7576112a881611177565b6112b18461118c565b810160208510156112c0578190505b6112d46112cc8561118c565b830182611273565b50505b505050565b600082821c905092915050565b60006112fa600019846008026112dc565b1980831691505092915050565b600061131383836112e9565b9150826002028217905092915050565b61132c82610a22565b67ffffffffffffffff81111561134557611344610b7a565b5b61134f8254611146565b61135a828285611296565b600060209050601f83116001811461138d576000841561137b578287015190505b6113858582611307565b8655506113ed565b601f19841661139b86611177565b60005b828110156113c35784890151825560018201915060208501945060208101905061139e565b868310156113e057848901516113dc601f8916826112e9565b8355505b6001600288020188555050505b505050505050565b7f4e487b7100000000000000000000000000000000000000000000000000000000600052601160045260246000fd5b600061142f826109bf565b915061143a836109bf565b9250828201905080821115611452576114516113f5565b5b92915050565b600061146382610ab2565b915061146e83610ab2565b9250828201905067ffffffffffffffff81111561148e5761148d6113f5565b5b9291505056fea2646970667358221220db43ebcaaecf09e2a6044896f9c276b3c89d29ee678460015f9decd36e5c0f4f64736f6c6343000813003368747470733a2f2f75706c6f61642e77696b696d656469612e6f72672f77696b6970656469612f636f6d6d6f6e732f7468756d622f312f31342f4e6174696f6e616c5f44656d6f6372617469635f416c6c69616e63655f6c6f676f2e7376672f38303070782d4e6174696f6e616c5f44656d6f6372617469635f416c6c69616e63655f6c6f676f2e7376672e706e6768747470733a2f2f75706c6f61642e77696b696d656469612e6f72672f77696b6970656469612f636f6d6d6f6e732f7468756d622f372f37382f496e6469616e5f4e6174696f6e616c5f436f6e67726573735f6c6f676f2e7376672f38303070782d496e6469616e5f4e6174696f6e616c5f436f6e67726573735f6c6f676f2e7376672e706e6768747470733a2f2f75706c6f61642e77696b696d656469612e6f72672f77696b6970656469612f636f6d6d6f6e732f7468756d622f312f31652f4268617261746979615f4a616e6174615f50617274795f6c6f676f2e7376672f3132303070782d4268617261746979615f4a616e6174615f50617274795f6c6f676f2e7376672e706e6768747470733a2f2f75706c6f61642e77696b696d656469612e6f72672f77696b6970656469612f636f6d6d6f6e732f662f66362f4e4f54415f4f7074696f6e5f4c6f676f2e737667",
  "immutableReferences": {},
  "source": "// SPDX-License-Identifier: MIT\r\npragma solidity >=0.4.22 <0.9.0;\r\n\r\ncontract vote {\r\n    uint public candidateCount;\r\n\r\n    // participating candidates\r\n\r\n    struct Candidate {\r\n        string party_name;\r\n        uint64 voteCount;\r\n        string img_url;\r\n        uint id;\r\n    }\r\n    mapping(uint => Candidate) public candDetails;\r\n\r\n    function addCandidate(string memory _name, string memory _img_url) public {\r\n        Candidate memory newCandidate = Candidate(\r\n            _name,\r\n            0,\r\n            _img_url,\r\n            candidateCount\r\n        );\r\n        candDetails[candidateCount] = newCandidate;\r\n        candidateCount += 1;\r\n    }\r\n\r\n    // voters\r\n\r\n    struct Voter {\r\n        string name;\r\n        string aadhar;\r\n        bool hasVoted;\r\n    }\r\n    mapping(address => Voter) public voterDetails;\r\n\r\n    function addVoters(\r\n        string memory _name,\r\n        string memory _aadhar,\r\n        address _user\r\n    ) public {\r\n        Voter memory newVoter = Voter(_name, _aadhar, false);\r\n        voterDetails[_user] = newVoter;\r\n    }\r\n\r\n    // sample voters (address are relative to ganache) and participants\r\n    constructor() {\r\n        addCandidate(\r\n            \"BJP\",\r\n            \"https://upload.wikimedia.org/wikipedia/commons/thumb/1/1e/Bharatiya_Janata_Party_logo.svg/1200px-Bharatiya_Janata_Party_logo.svg.png\"\r\n        );\r\n        addCandidate(\r\n            \"INC\",\r\n            \"https://upload.wikimedia.org/wikipedia/commons/thumb/7/78/Indian_National_Congress_logo.svg/800px-Indian_National_Congress_logo.svg.png\"\r\n        );\r\n        addCandidate(\r\n            \"NDA\",\r\n            \"https://upload.wikimedia.org/wikipedia/commons/thumb/1/14/National_Democratic_Alliance_logo.svg/800px-National_Democratic_Alliance_logo.svg.png\"\r\n        );\r\n        addCandidate(\r\n            \"NOTA\",\r\n            \"https://upload.wikimedia.org/wikipedia/commons/f/f6/NOTA_Option_Logo.svg\"\r\n        );\r\n\r\n        // voters\r\n        addVoters(\r\n            \"Raja\",\r\n            \"12345678912\",\r\n            0x37AfC9Bc5804Fbbb248f59650808AbAF320F2b80\r\n        );\r\n        addVoters(\"Asmi\", \"666\", 0x8fff0a7bf0De63bc0834D23FbeEa7C630CcD94D1);\r\n        addVoters(\r\n            \"Preeti\",\r\n            \"0987654321\",\r\n            0xF8B90B06CBd25146B0d1DC4372f1252973c2C9c3\r\n        );\r\n        addVoters(\r\n            \"Yash\",\r\n            \"34243434\",\r\n            0xA1EA63BB04c851482815a79fE718E27BFB3F2914\r\n        );\r\n    }\r\n\r\n    // voting function\r\n\r\n    function voting(uint candId) public {\r\n        require(voterDetails[msg.sender].hasVoted == false);\r\n        candDetails[candId].voteCount += 1;\r\n        voterDetails[msg.sender].hasVoted = true;\r\n    }\r\n\r\n    function checkVoted(address addr) public view returns (bool) {\r\n        return voterDetails[addr].hasVoted;\r\n    }\r\n\r\n    // return style top to bottom style - i.e accourding to the result in\r\n    address owner = 0x37AfC9Bc5804Fbbb248f59650808AbAF320F2b80;\r\n\r\n    function getResult() public view returns (uint[][] memory) {\r\n        uint[][] memory result;\r\n        require(msg.sender != owner);\r\n        // if (msg.sender == owner) {\r\n        // for (uint i = 0; i <= candidateCount; i++) {\r\n        //     result[i][0] = candDetails[i].id;\r\n        //     result[i][1] = candDetails[i].voteCount;\r\n        // }\r\n        // }\r\n        return result;\r\n    }\r\n\r\n    // function voteCount(uint id) public view returns (Candidate memory) {\r\n    //     // require(msg.sender == owner);\r\n    //     return candDetails[id];\r\n    // }\r\n\r\n    function getCandid(uint id) public view returns (Candidate memory) {\r\n        return candDetails[id];\r\n    }\r\n\r\n    /*\r\n        TODO OR MAY REQUIRED\r\n        \r\n        [-] Making addCandidate and addVoters to admin only function\r\n        [-] Create a separate dashboard for admin to add users and verify votes\r\n    */\r\n}\r\n",
  "sourcePath": "D:\\Projects\\fya-e-voting\\Smart_contract\\contracts\\vote.sol",
  "compiler": {
    "name": "solc",
    "version": "0.8.19+commit.7dd6d404.Emscripten.clang"
  },
  "schemaVersion": "3.4.13",
  "updatedAt": "2023-04-16T05:01:04.966Z",
  "networkType": "ethereum",
  "devdoc": {
    "kind": "dev",
    "methods": {},
    "version": 1
  },
  "userdoc": {
    "kind": "user",
    "methods": {},
    "version": 1
  }
}