{
  "contractName": "vote",
  "abi": [
    {
      "inputs": [],
      "stateMutability": "nonpayable",
      "type": "constructor"
    },
    {
      "inputs": [
        {
          "internalType": "uint256",
          "name": "",
          "type": "uint256"
        }
      ],
      "name": "candDetails",
      "outputs": [
        {
          "internalType": "string",
          "name": "party_name",
          "type": "string"
        },
        {
          "internalType": "uint64",
          "name": "voteCount",
          "type": "uint64"
        },
        {
          "internalType": "string",
          "name": "img_url",
          "type": "string"
        },
        {
          "internalType": "uint256",
          "name": "id",
          "type": "uint256"
        }
      ],
      "stateMutability": "view",
      "type": "function",
      "constant": true
    },
    {
      "inputs": [],
      "name": "candidateCount",
      "outputs": [
        {
          "internalType": "uint256",
          "name": "",
          "type": "uint256"
        }
      ],
      "stateMutability": "view",
      "type": "function",
      "constant": true
    },
    {
      "inputs": [
        {
          "internalType": "address",
          "name": "",
          "type": "address"
        }
      ],
      "name": "voterDetails",
      "outputs": [
        {
          "internalType": "string",
          "name": "name",
          "type": "string"
        },
        {
          "internalType": "string",
          "name": "aadhar",
          "type": "string"
        },
        {
          "internalType": "bool",
          "name": "hasVoted",
          "type": "bool"
        }
      ],
      "stateMutability": "view",
      "type": "function",
      "constant": true
    },
    {
      "inputs": [
        {
          "internalType": "string",
          "name": "_name",
          "type": "string"
        },
        {
          "internalType": "string",
          "name": "_img_url",
          "type": "string"
        }
      ],
      "name": "addCandidate",
      "outputs": [],
      "stateMutability": "nonpayable",
      "type": "function"
    },
    {
      "inputs": [
        {
          "internalType": "string",
          "name": "_name",
          "type": "string"
        },
        {
          "internalType": "string",
          "name": "_aadhar",
          "type": "string"
        },
        {
          "internalType": "address",
          "name": "_user",
          "type": "address"
        }
      ],
      "name": "addVoters",
      "outputs": [],
      "stateMutability": "nonpayable",
      "type": "function"
    },
    {
      "inputs": [
        {
          "internalType": "uint256",
          "name": "candId",
          "type": "uint256"
        }
      ],
      "name": "voting",
      "outputs": [],
      "stateMutability": "nonpayable",
      "type": "function"
    },
    {
      "inputs": [],
      "name": "getResult",
      "outputs": [
        {
          "internalType": "uint256[][]",
          "name": "",
          "type": "uint256[][]"
        }
      ],
      "stateMutability": "view",
      "type": "function",
      "constant": true
    }
  ],
  "bytecode": "0x60806040523480156200001157600080fd5b50620000726040518060400160405280600381526020017f424a5000000000000000000000000000000000000000000000000000000000008152506040518060c001604052806084815260200162001c03608491396200034b60201b60201c565b620000d26040518060400160405280600381526020017f494e4300000000000000000000000000000000000000000000000000000000008152506040518060c001604052806087815260200162001b7c608791396200034b60201b60201c565b620001326040518060400160405280600381526020017f4e444100000000000000000000000000000000000000000000000000000000008152506040518060c00160405280608f815260200162001aed608f91396200034b60201b60201c565b620001926040518060400160405280600481526020017f4e4f54410000000000000000000000000000000000000000000000000000000081525060405180608001604052806048815260200162001c87604891396200034b60201b60201c565b620002236040518060400160405280600481526020017f52616a61000000000000000000000000000000000000000000000000000000008152506040518060400160405280600b81526020017f31323334353637383931320000000000000000000000000000000000000000008152507312123b2c064b62c54d00a691d84778a1944bc4016200041e60201b60201c565b620002b46040518060400160405280600481526020017f41736d69000000000000000000000000000000000000000000000000000000008152506040518060400160405280600381526020017f3636360000000000000000000000000000000000000000000000000000000000815250735e212f598a5c7c4566ae54214aa10dbf535257776200041e60201b60201c565b620003456040518060400160405280600681526020017f50726565746900000000000000000000000000000000000000000000000000008152506040518060400160405280600a81526020017f303938373635343332310000000000000000000000000000000000000000000081525073307b19dc0f1c677bee88d28fac8760df77e6b8a46200041e60201b60201c565b620008a4565b60006040518060800160405280848152602001600067ffffffffffffffff16815260200183815260200160005481525090508060016000805481526020019081526020016000206000820151816000019081620003a9919062000753565b5060208201518160010160006101000a81548167ffffffffffffffff021916908367ffffffffffffffff1602179055506040820151816002019081620003f0919062000753565b5060608201518160030155905050600160008082825462000412919062000869565b92505081905550505050565b6000604051806060016040528085815260200184815260200160001515815250905080600260008473ffffffffffffffffffffffffffffffffffffffff1673ffffffffffffffffffffffffffffffffffffffff168152602001908152602001600020600082015181600001908162000497919062000753565b506020820151816001019081620004af919062000753565b5060408201518160020160006101000a81548160ff02191690831515021790555090505050505050565b600081519050919050565b7f4e487b7100000000000000000000000000000000000000000000000000000000600052604160045260246000fd5b7f4e487b7100000000000000000000000000000000000000000000000000000000600052602260045260246000fd5b600060028204905060018216806200055b57607f821691505b60208210810362000571576200057062000513565b5b50919050565b60008190508160005260206000209050919050565b60006020601f8301049050919050565b600082821b905092915050565b600060088302620005db7fffffffffffffffffffffffffffffffffffffffffffffffffffffffffffffffff826200059c565b620005e786836200059c565b95508019841693508086168417925050509392505050565b6000819050919050565b6000819050919050565b6000620006346200062e6200062884620005ff565b62000609565b620005ff565b9050919050565b6000819050919050565b620006508362000613565b620006686200065f826200063b565b848454620005a9565b825550505050565b600090565b6200067f62000670565b6200068c81848462000645565b505050565b5b81811015620006b457620006a860008262000675565b60018101905062000692565b5050565b601f8211156200070357620006cd8162000577565b620006d8846200058c565b81016020851015620006e8578190505b62000700620006f7856200058c565b83018262000691565b50505b505050565b600082821c905092915050565b6000620007286000198460080262000708565b1980831691505092915050565b600062000743838362000715565b9150826002028217905092915050565b6200075e82620004d9565b67ffffffffffffffff8111156200077a5762000779620004e4565b5b62000786825462000542565b62000793828285620006b8565b600060209050601f831160018114620007cb5760008415620007b6578287015190505b620007c2858262000735565b86555062000832565b601f198416620007db8662000577565b60005b828110156200080557848901518255600182019150602085019450602081019050620007de565b8683101562000825578489015162000821601f89168262000715565b8355505b6001600288020188555050505b505050505050565b7f4e487b7100000000000000000000000000000000000000000000000000000000600052601160045260246000fd5b60006200087682620005ff565b91506200088383620005ff565b92508282019050808211156200089e576200089d6200083a565b5b92915050565b61123980620008b46000396000f3fe608060405234801561001057600080fd5b506004361061007d5760003560e01c8063a9a981a31161005b578063a9a981a3146100ec578063de2927891461010a578063ebba89b114610128578063fd4a77f11461015b5761007d565b806326541b56146100825780635938750d1461009e5780636e726823146100d0575b600080fd5b61009c600480360381019061009791906108fd565b610177565b005b6100b860048036038101906100b391906109d3565b610244565b6040516100c793929190610a9a565b60405180910390f35b6100ea60048036038101906100e59190610adf565b61038b565b005b6100f4610442565b6040516101019190610b83565b60405180910390f35b610112610448565b60405161011f9190610d1e565b60405180910390f35b610142600480360381019061013d9190610d6c565b610532565b6040516101529493929190610dbc565b60405180910390f35b61017560048036038101906101709190610d6c565b610686565b005b60006040518060800160405280848152602001600067ffffffffffffffff168152602001838152602001600054815250905080600160008054815260200190815260200160002060008201518160000190816101d3919061101b565b5060208201518160010160006101000a81548167ffffffffffffffff021916908367ffffffffffffffff1602179055506040820151816002019081610218919061101b565b50606082015181600301559050506001600080828254610238919061111c565b92505081905550505050565b600260205280600052604060002060009150905080600001805461026790610e3e565b80601f016020809104026020016040519081016040528092919081815260200182805461029390610e3e565b80156102e05780601f106102b5576101008083540402835291602001916102e0565b820191906000526020600020905b8154815290600101906020018083116102c357829003601f168201915b5050505050908060010180546102f590610e3e565b80601f016020809104026020016040519081016040528092919081815260200182805461032190610e3e565b801561036e5780601f106103435761010080835404028352916020019161036e565b820191906000526020600020905b81548152906001019060200180831161035157829003601f168201915b5050505050908060020160009054906101000a900460ff16905083565b6000604051806060016040528085815260200184815260200160001515815250905080600260008473ffffffffffffffffffffffffffffffffffffffff1673ffffffffffffffffffffffffffffffffffffffff1681526020019081526020016000206000820151816000019081610402919061101b565b506020820151816001019081610418919061101b565b5060408201518160020160006101000a81548160ff02191690831515021790555090505050505050565b60005481565b60608060005b600054811161052a57600160008281526020019081526020016000206003015482828151811061048157610480611150565b5b602002602001015160008151811061049c5761049b611150565b5b6020026020010181815250506001600082815260200190815260200160002060010160009054906101000a900467ffffffffffffffff1667ffffffffffffffff168282815181106104f0576104ef611150565b5b602002602001015160018151811061050b5761050a611150565b5b60200260200101818152505080806105229061117f565b91505061044e565b508091505090565b600160205280600052604060002060009150905080600001805461055590610e3e565b80601f016020809104026020016040519081016040528092919081815260200182805461058190610e3e565b80156105ce5780601f106105a3576101008083540402835291602001916105ce565b820191906000526020600020905b8154815290600101906020018083116105b157829003601f168201915b5050505050908060010160009054906101000a900467ffffffffffffffff16908060020180546105fd90610e3e565b80601f016020809104026020016040519081016040528092919081815260200182805461062990610e3e565b80156106765780601f1061064b57610100808354040283529160200191610676565b820191906000526020600020905b81548152906001019060200180831161065957829003601f168201915b5050505050908060030154905084565b60001515600260003373ffffffffffffffffffffffffffffffffffffffff1673ffffffffffffffffffffffffffffffffffffffff16815260200190815260200160002060020160009054906101000a900460ff161515146106e657600080fd5b600180600083815260200190815260200160002060010160008282829054906101000a900467ffffffffffffffff1661071f91906111c7565b92506101000a81548167ffffffffffffffff021916908367ffffffffffffffff1602179055506001600260003373ffffffffffffffffffffffffffffffffffffffff1673ffffffffffffffffffffffffffffffffffffffff16815260200190815260200160002060020160006101000a81548160ff02191690831515021790555050565b6000604051905090565b600080fd5b600080fd5b600080fd5b600080fd5b6000601f19601f8301169050919050565b7f4e487b7100000000000000000000000000000000000000000000000000000000600052604160045260246000fd5b61080a826107c1565b810181811067ffffffffffffffff82111715610829576108286107d2565b5b80604052505050565b600061083c6107a3565b90506108488282610801565b919050565b600067ffffffffffffffff821115610868576108676107d2565b5b610871826107c1565b9050602081019050919050565b82818337600083830152505050565b60006108a061089b8461084d565b610832565b9050828152602081018484840111156108bc576108bb6107bc565b5b6108c784828561087e565b509392505050565b600082601f8301126108e4576108e36107b7565b5b81356108f484826020860161088d565b91505092915050565b60008060408385031215610914576109136107ad565b5b600083013567ffffffffffffffff811115610932576109316107b2565b5b61093e858286016108cf565b925050602083013567ffffffffffffffff81111561095f5761095e6107b2565b5b61096b858286016108cf565b9150509250929050565b600073ffffffffffffffffffffffffffffffffffffffff82169050919050565b60006109a082610975565b9050919050565b6109b081610995565b81146109bb57600080fd5b50565b6000813590506109cd816109a7565b92915050565b6000602082840312156109e9576109e86107ad565b5b60006109f7848285016109be565b91505092915050565b600081519050919050565b600082825260208201905092915050565b60005b83811015610a3a578082015181840152602081019050610a1f565b60008484015250505050565b6000610a5182610a00565b610a5b8185610a0b565b9350610a6b818560208601610a1c565b610a74816107c1565b840191505092915050565b60008115159050919050565b610a9481610a7f565b82525050565b60006060820190508181036000830152610ab48186610a46565b90508181036020830152610ac88185610a46565b9050610ad76040830184610a8b565b949350505050565b600080600060608486031215610af857610af76107ad565b5b600084013567ffffffffffffffff811115610b1657610b156107b2565b5b610b22868287016108cf565b935050602084013567ffffffffffffffff811115610b4357610b426107b2565b5b610b4f868287016108cf565b9250506040610b60868287016109be565b9150509250925092565b6000819050919050565b610b7d81610b6a565b82525050565b6000602082019050610b986000830184610b74565b92915050565b600081519050919050565b600082825260208201905092915050565b6000819050602082019050919050565b600081519050919050565b600082825260208201905092915050565b6000819050602082019050919050565b610bff81610b6a565b82525050565b6000610c118383610bf6565b60208301905092915050565b6000602082019050919050565b6000610c3582610bca565b610c3f8185610bd5565b9350610c4a83610be6565b8060005b83811015610c7b578151610c628882610c05565b9750610c6d83610c1d565b925050600181019050610c4e565b5085935050505092915050565b6000610c948383610c2a565b905092915050565b6000602082019050919050565b6000610cb482610b9e565b610cbe8185610ba9565b935083602082028501610cd085610bba565b8060005b85811015610d0c5784840389528151610ced8582610c88565b9450610cf883610c9c565b925060208a01995050600181019050610cd4565b50829750879550505050505092915050565b60006020820190508181036000830152610d388184610ca9565b905092915050565b610d4981610b6a565b8114610d5457600080fd5b50565b600081359050610d6681610d40565b92915050565b600060208284031215610d8257610d816107ad565b5b6000610d9084828501610d57565b91505092915050565b600067ffffffffffffffff82169050919050565b610db681610d99565b82525050565b60006080820190508181036000830152610dd68187610a46565b9050610de56020830186610dad565b8181036040830152610df78185610a46565b9050610e066060830184610b74565b95945050505050565b7f4e487b7100000000000000000000000000000000000000000000000000000000600052602260045260246000fd5b60006002820490506001821680610e5657607f821691505b602082108103610e6957610e68610e0f565b5b50919050565b60008190508160005260206000209050919050565b60006020601f8301049050919050565b600082821b905092915050565b600060088302610ed17fffffffffffffffffffffffffffffffffffffffffffffffffffffffffffffffff82610e94565b610edb8683610e94565b95508019841693508086168417925050509392505050565b6000819050919050565b6000610f18610f13610f0e84610b6a565b610ef3565b610b6a565b9050919050565b6000819050919050565b610f3283610efd565b610f46610f3e82610f1f565b848454610ea1565b825550505050565b600090565b610f5b610f4e565b610f66818484610f29565b505050565b5b81811015610f8a57610f7f600082610f53565b600181019050610f6c565b5050565b601f821115610fcf57610fa081610e6f565b610fa984610e84565b81016020851015610fb8578190505b610fcc610fc485610e84565b830182610f6b565b50505b505050565b600082821c905092915050565b6000610ff260001984600802610fd4565b1980831691505092915050565b600061100b8383610fe1565b9150826002028217905092915050565b61102482610a00565b67ffffffffffffffff81111561103d5761103c6107d2565b5b6110478254610e3e565b611052828285610f8e565b600060209050601f8311600181146110855760008415611073578287015190505b61107d8582610fff565b8655506110e5565b601f19841661109386610e6f565b60005b828110156110bb57848901518255600182019150602085019450602081019050611096565b868310156110d857848901516110d4601f891682610fe1565b8355505b6001600288020188555050505b505050505050565b7f4e487b7100000000000000000000000000000000000000000000000000000000600052601160045260246000fd5b600061112782610b6a565b915061113283610b6a565b925082820190508082111561114a576111496110ed565b5b92915050565b7f4e487b7100000000000000000000000000000000000000000000000000000000600052603260045260246000fd5b600061118a82610b6a565b91507fffffffffffffffffffffffffffffffffffffffffffffffffffffffffffffffff82036111bc576111bb6110ed565b5b600182019050919050565b60006111d282610d99565b91506111dd83610d99565b9250828201905067ffffffffffffffff8111156111fd576111fc6110ed565b5b9291505056fea264697066735822122014d13df8fd5a98d4d2d37775c6061e786931d0fd438102d59811764954e4bdab64736f6c6343000813003368747470733a2f2f75706c6f61642e77696b696d656469612e6f72672f77696b6970656469612f636f6d6d6f6e732f7468756d622f312f31342f4e6174696f6e616c5f44656d6f6372617469635f416c6c69616e63655f6c6f676f2e7376672f38303070782d4e6174696f6e616c5f44656d6f6372617469635f416c6c69616e63655f6c6f676f2e7376672e706e6768747470733a2f2f75706c6f61642e77696b696d656469612e6f72672f77696b6970656469612f636f6d6d6f6e732f7468756d622f372f37382f496e6469616e5f4e6174696f6e616c5f436f6e67726573735f6c6f676f2e7376672f38303070782d496e6469616e5f4e6174696f6e616c5f436f6e67726573735f6c6f676f2e7376672e706e6768747470733a2f2f75706c6f61642e77696b696d656469612e6f72672f77696b6970656469612f636f6d6d6f6e732f7468756d622f312f31652f4268617261746979615f4a616e6174615f50617274795f6c6f676f2e7376672f3132303070782d4268617261746979615f4a616e6174615f50617274795f6c6f676f2e7376672e706e6768747470733a2f2f75706c6f61642e77696b696d656469612e6f72672f77696b6970656469612f636f6d6d6f6e732f662f66362f4e4f54415f4f7074696f6e5f4c6f676f2e737667",
  "immutableReferences": {},
  "source": "// SPDX-License-Identifier: MIT\r\npragma solidity >=0.4.22 <0.9.0;\r\n\r\ncontract vote {\r\n    \r\n    uint public candidateCount;\r\n\r\n\r\n    // participating candidates\r\n    \r\n    struct Candidate{\r\n        string party_name;\r\n        uint64 voteCount;\r\n        string img_url;\r\n        uint id;\r\n    }\r\n    mapping(uint => Candidate) public candDetails;\r\n\r\n    function addCandidate(string memory _name, string memory _img_url) public{\r\n        Candidate memory newCandidate = Candidate(_name, 0, _img_url, candidateCount);\r\n        candDetails[candidateCount] = newCandidate;\r\n        candidateCount += 1;\r\n    }\r\n\r\n    // voters\r\n\r\n    struct Voter{\r\n        string name;\r\n        string aadhar;\r\n        bool hasVoted;\r\n    }\r\n    mapping(address => Voter) public voterDetails;\r\n\r\n    function addVoters(string memory _name, string memory _aadhar, address _user) public{\r\n        Voter memory newVoter = Voter(_name, _aadhar, false);\r\n        voterDetails[_user] = newVoter;\r\n    }\r\n\r\n    // sample voters (address are relative to ganache) and participants\r\n    constructor(){\r\n        addCandidate(\"BJP\",\"https://upload.wikimedia.org/wikipedia/commons/thumb/1/1e/Bharatiya_Janata_Party_logo.svg/1200px-Bharatiya_Janata_Party_logo.svg.png\");\r\n        addCandidate(\"INC\",\"https://upload.wikimedia.org/wikipedia/commons/thumb/7/78/Indian_National_Congress_logo.svg/800px-Indian_National_Congress_logo.svg.png\");\r\n        addCandidate(\"NDA\",\"https://upload.wikimedia.org/wikipedia/commons/thumb/1/14/National_Democratic_Alliance_logo.svg/800px-National_Democratic_Alliance_logo.svg.png\");\r\n        addCandidate(\"NOTA\",\"https://upload.wikimedia.org/wikipedia/commons/f/f6/NOTA_Option_Logo.svg\");\r\n    \r\n        // voters\r\n        addVoters(\"Raja\",\"12345678912\", 0x12123B2c064b62c54D00a691D84778A1944bC401);\r\n        addVoters(\"Asmi\", \"666\", 0x5E212f598a5c7C4566ae54214aA10dbf53525777);\r\n        addVoters(\"Preeti\", \"0987654321\", 0x307b19dC0F1c677bee88D28FAC8760dF77e6b8a4);\r\n    }\r\n\r\n\r\n    // voting function\r\n\r\n    function voting(uint candId) public{\r\n        require(voterDetails[msg.sender].hasVoted == false);\r\n        candDetails[candId].voteCount += 1;\r\n        voterDetails[msg.sender].hasVoted = true;\r\n    }\r\n\r\n    // return style top to bottom style - i.e accourding to the result in \r\n\r\n    function getResult() public view returns(uint [][] memory){\r\n        uint[][] memory result;\r\n        for (uint i = 0; i <= candidateCount; i++){\r\n            result[i][0] = candDetails[i].id;\r\n            result[i][1] = candDetails[i].voteCount;\r\n        }\r\n        return result;\r\n    }\r\n\r\n    /*\r\n        TODO OR MAY REQUIRED\r\n        \r\n        [-] Making addCandidate and addVoters to admin only function\r\n        [-] Create a separate dashboard for admin to add users and verify votes\r\n    */\r\n}",
  "sourcePath": "D:\\Projects\\fya-e-voting\\Smart_contract\\contracts\\vote.sol",
  "compiler": {
    "name": "solc",
    "version": "0.8.19+commit.7dd6d404.Emscripten.clang"
  },
  "schemaVersion": "3.4.13",
  "updatedAt": "2023-04-15T17:55:09.563Z",
  "networkType": "ethereum",
  "devdoc": {
    "kind": "dev",
    "methods": {},
    "version": 1
  },
  "userdoc": {
    "kind": "user",
    "methods": {},
    "version": 1
  }
}